:020000040800F2
:10000000B0630020A901000837340008D33200088B
:100010002D340008350C0008F562000800000000CF
:100020000000000000000000000000008F550008E4
:10003000B910000800000000B13700087D57000823
:10004000C3010008C3010008C3010008C301000880
:10005000C3010008C3010008C3010008C301000870
:10006000C3010008C3010008C3010008C301000860
:10007000C3010008C3010008C3010008C301000850
:10008000C3010008C3010008C3010008000000000C
:10009000000000000000000000000000C301000894
:1000A000C30100083D590008C3010008C30100084E
:1000B0004D5900085D5900086D590008C30100083A
:1000C000C3010008C3010008C3010008C301000800
:1000D000C3010008E5610008F561000800000000A8
:1000E000C3010008C3010008C301000800000000AC
:1000F000000000000000000000000000C301000834
:1001000000000000C3010008C3010008C30100088B
:1001100000000000000000000000000000000000DF
:10012000C3010008C3010008C3010008C30100089F
:10013000C3010008000000000000000000000000F3
:10014000000000000000000000000000C3010008E3
:10015000C3010008C3010008C3010008C30100086F
:10016000C3010008C30100080000000000000000F7
:10017000000000000000000000000000000000007F
:1001800000000000C30100080000000000000000A3
:10019000C3010008DFF80CD000F08CFA00480047DB
:1001A000ED880008B06300200648804706480047F5
:1001B000FEE7FEE7FEE7FEE7FEE7FEE7FEE7FEE717
:1001C000FEE7FEE7D95800089501000840EA010360
:1001D0009B0703D009E008C9121F08C0042AFAD2FD
:1001E00003E011F8013B00F8013B521EF9D27047C1
:1001F000D2B201E000F8012B491EFBD27047002269
:10020000F6E710B513460A4604461946FFF7F0FF15
:10021000204610BD30B505462A460B4612F8010BA4
:1002200013F8014B08B1A042F8D01CB1002802D04D
:100230006D1CF1E7284630BD421C10F8011B002957
:10024000FBD1801A7047C1F30A5210B5C1F31301F4
:1002500040F2FF3341F480119A4201DA002010BDD0
:1002600040F233439A42A2F2334203DC524200F09E
:1002700060F810BD904010BD00F0004230F000402A
:100280000AD0C10D01F56071C0F3160042EA0151B8
:10029000C208400711437047002001467047000024
:1002A00030B5041E71F1000404DB4FF000444042FD
:1002B00064EB0101141E73F1000405DB1C464FF0D2
:1002C0000043524263EB0403994208BF904230BDA1
:1002D0002DE9F05F0546002092469B46884606467B
:1002E000814640241BE0284641464746224600F00E
:1002F00020F853465A46C01A914110D31146184669
:10030000224600F0E9F92D1A67EB01084F46224614
:100310000120002100F0E0F917EB00094E41201EFA
:10032000A4F10104DFDC484631462A464346BDE8D5
:10033000F09F202A04DB203A21FA02F000217047C6
:1003400021FA02F3D040C2F120029140084319463D
:1003500070472DE9FE4F804681EA0300C00F0C462E
:10036000009021F0004123F00045B8EB0200A941C4
:1003700005D24046214690461C460B46024623F0D5
:100380000040104347D0270DC7F30A00C3F30A51BA
:100390000290401A019040286BDAC3F3130040F436
:1003A000801B0098924620B10023D2EB030A63EB36
:1003B0000B0B01985946C0F14002504600F08CF9F1
:1003C00006460D4650465946019A00F094F910EB46
:1003D00008006141002487EA115284EAE7731A4356
:1003E00040D0009A62B3019A012A4FEA075215DC05
:1003F000001B61EB02014FF0004202EA0752CDE917
:100400000042001C41F5801132462B4600F094F961
:1004100003B0BDE8F08F40462146F9E7001B61EBD1
:100420000201001C41F5801300185B412018A2F561
:10043000001747EB030140EAD570B6196D4111E092
:100440006D084FEA360645EAC0754FEA0752001BB1
:1004500061EB0201001C41F5801149084FEA3000B0
:100460000019514132462B4603B0BDE8F04F00F071
:1004700054B90098012240000023D0EB020263EB44
:10048000E073009821464FEAE074B8EB000061EB9E
:100490000401E9E783F000435BE781F0004158E79E
:1004A0002DE9FE4F81EA030404F0004421F00041ED
:1004B00000944FF0000B23F0004350EA01045ED09B
:1004C00052EA03045BD0C3F30A54C1F30A552C4427
:1004D000A4F2F3340194A0FB0254C1F3130141F4DC
:1004E0008011C3F3130343F4801301FB024400FBA8
:1004F000034E840A970A44EA815447EA8357A4FBCF
:10050000076802958D0A05FB07854FEA932C04FBCB
:100510000C542705029D4FEA065847EA1637B5EBFB
:1005200008056EEB070C870E920E47EA811742EA28
:100530008312A7FB0201B6EB0B0164EB00042B0D49
:1005400043EA0C335E1844EB1C50DA465146E7FB95
:100550000201C5F313044FEA0B3343EA14534FEA85
:100560000432019C43EA0603A4F10C040294009CAB
:10057000CDE900B400F0E0F803B0BDE8F08F002052
:100580000146F9E72DE9F04D81EA030404F0004B40
:1005900021F0004514464FF0000A23F0004150EAD4
:1005A000050220D054EA01021DD0C5F30A570246C5
:1005B000C5F31303C1F31300C1F30A5640F48015C9
:1005C00043F48013A7EB0608101BD64608F2FD384B
:1005D00073EB050002D308F1010801E092185B41BA
:1005E000B8F1000F03DA00200146BDE8F08D0020CD
:1005F0004FF48011064684460EE0171B73EB050787
:1006000005D3121B63EB050306434CEA010C4908B2
:100610004FEA300092185B4150EA0107EDD152EAEF
:10062000030012D082EA040083EA0501084305D0E2
:10063000101BAB4106D20122002306E000224FF03E
:10064000004302E06FF0010253101AEB06004CEB7E
:10065000085110EB0A0041EB0B01BDE8F04D00F032
:100660005CB870B521F0004303430CD0C1F30A55C8
:100670000024D5EB040564EB0403D617AD1AB3418F
:1006800002DB0020014670BD201841EB025170BD15
:100690000EB5C10F80EAE0700844CA07002140F29D
:1006A00033438DE80E000A460B4600F045F803B0D0
:1006B00000BD0000064C074D06E0E06840F0010375
:1006C00094E8070098471034AC42F6D3FFF766FD74
:1006D0006896000888960008202A04DB203A00FA71
:1006E00002F1002070479140C2F1200320FA03F389
:1006F000194390407047202A06DBCB17203A41FA75
:1007000002F043EAE07306E041FA02F3D040C2F19E
:100710002002914008431946704710B5141E73F12A
:10072000000408DA401C41F1000192185B411A43B1
:1007300001D120F0010010BD2DE9F04D92469B46FD
:1007400011B1B1FA81F202E0B0FA80F220329046A3
:10075000FFF7C2FF04460F4640EA0A0041EA0B01D8
:1007600053465A46084313D0114653EA010019D0A4
:10077000C8F140025046FFF7DCFD05460E465046E4
:1007800059464246FFF7A8FF084305D0012004E080
:1007900020463946BDE8F08D0020054346EAE07664
:1007A0002C4337430A986305E40AA0EB08000022B3
:1007B000FD0A44EA47540A3002D500200146E9E721
:1007C000010510196941DDE9084500196941BDE8D5
:1007D000F04DA2E72DE9F04D00231A461B1A8A417D
:1007E00003DB00200146BDE8F08DC1F30A52C1F3DE
:1007F000130141F480154FF0000BD10702D100180E
:100800006D41521E0027044640F2FF11384601EBAD
:10081000620A3E468046024600204FF48011FFF7F0
:1008200088FDC2197141BB1846EB0100B4EB030C03
:1008300075EB000C04D3E41A65EB000517460E4671
:10084000241908F101006D4180463428E3DDF919CF
:1008500046EB0600091BA84103D24FF0FF321346B6
:1008600001E0002213461BEB070046EB0A51BDE8EE
:10087000F04DFFF752BF70B58C1810F8015B15F002
:10088000070301D110F8013B2A1106D110F8012B02
:1008900003E010F8016B01F8016B5B1EF9D12B0727
:1008A00005D40023521E0DD401F8013BFAE710F8DD
:1008B000013BCB1A921C03E013F8015B01F8015BCA
:1008C000521EF9D5A142D8D3002070BD08B50C48FE
:1008D0000C49086008460068006818B900200860E4
:1008E000012008BD0748006801686846884720B1B4
:1008F0000020044908600120F3E70020F1E7000030
:10090000380000205400002010B5044693480078B9
:1009100060B9934800220121436892489847904863
:100920000022022183688F48984711E08C480122F9
:10093000114643688B489847894801220221836801
:10094000884898478648002201214368854898478F
:10095000002085490870C1E08348007844FA00F01F
:1009600000F00100814908707F480078082819D2FA
:10097000DFE800F004192E43586D82987B48007818
:1009800030B977480022012103687948984709E087
:1009900076480078012805D1714801221146036884
:1009A0007348984794E07148007830B96C48002249
:1009B000022103686E48984709E06C4800780128D6
:1009C00005D16748012202210368694898477FE002
:1009D0006648007830B962480022082103686448FC
:1009E000984709E061480078012805D15C48012258
:1009F000082103685E4898476AE05C48007830B98F
:100A000057480022102103685948984709E0574881
:100A10000078012805D1524801221021036854486A
:100A2000984755E05148007830B94D4800221021D0
:100A300003685048984709E04C480078012805D1E0
:100A400047480122102103684A48984740E0474838
:100A5000007830B942480022202103684548984771
:100A600009E042480078012805D13D4801222021B3
:100A70000368404898472BE03C48007838B938482C
:100A800000224FF4007103683A48984709E037485C
:100A90000078012805D13248012251020368354807
:100AA000984715E03148007838B92D4800224FF4B6
:100AB000807103682F48984709E02C480078012886
:100AC00005D127480122110203682A48984700BF30
:100AD00000BF25480078401C234908702248007850
:100AE0000828FFF639AF1D480078012835D11C4889
:100AF0000022012143681B48984719480022012120
:100B0000436818489847164801221146436815481B
:100B100098471348002202218368124898471048DA
:100B20000022022183680F4898470D4800220221C5
:100B300083680C4898470A480122022183680948C3
:100B400098470748012202218368064898470448CD
:100B50000122022183680348984710BD7B000020D2
:100B600000000020000802407A00002079000020E8
:100B7000000002400004024010B50421074801F0C3
:100B800089F80749087008460078012802D105490C
:100B9000087002E000200349087010BD0000024008
:100BA0007C0000207B00002010B50446044A32F887
:100BB0001410044A52F82400012201F073F810BD09
:100BC000AC9500080C01002010B5044603482246ED
:100BD000012103680248984710BD00000000002072
:100BE0000004024010B5024909688868804710BDBA
:100BF0005000002008B50D480D4908600020009005
:100C000008460068006818B900200860012008BD87
:100C10000748006801686846884720B100200449F9
:100C200008600120F3E70020F1E700000C0000203D
:100C30005000002002E00020FFF7B6FFFBE70000B5
:100C40000146487880EA6000364A10701046007805
:100C500080EAA00010701046007800F01000324AC0
:100C6000107010460078001110702E48007800F0C7
:100C700001002E4A10702B48007800F004002C4A26
:100C8000107010460078801010702648007880EAB6
:100C90002010244A10701046007800F001001070F7
:100CA00010460078C04310701046007800F0010034
:100CB00010701D480078C0431B4A10701046007821
:100CC00000F00100107019480078C043174A1070F6
:100CD0001046007800F00100107015480078C043FD
:100CE000134A10701046007800F0010010700D4893
:100CF000007840010C4A127840EA02100B4A127840
:100D000040EAC2000A4A127840EA8200094A10709A
:100D1000087800F03C001278904201D00120704722
:100D20000020FCE774000020750000207600002001
:100D30007700002078000020704710B50446204658
:100D4000FFF77EFF10BD10B500F002F810BD0000E7
:100D500008B500228021094800F0A4FF4FF48070FC
:100D60000123074A07490090074801F063FC01226C
:100D70008021024800F096FF014808BD00080240AB
:100D800072000020700000205801002010B50446B9
:100D9000204600F036F810BD10B50446204600F09D
:100DA00036F810BD00B587B000BF002001900D4897
:100DB000006840F002000B4908600846006800F037
:100DC0000200019000BF00BF40200290012003906C
:100DD00000200490059002A9034800F071FE07B0BE
:100DE00000BD0000303802400004024010B5044647
:100DF00000F013F808B1012010BDFFF7D3FF002069
:100E0000FAE701460878012222EA9010704701466D
:100E10000878012222EAD010704710B504F0D8FA01
:100E200008B1012010BD0020FCE7000000200149AE
:100E3000087070473701002070B52DED028B4FF020
:100E4000FF35002400208E4908708E4908708E49B5
:100E500008808E4800210160017100BF8C488A49DA
:100E60000988405C54287DD0894887490988405CBE
:100E70004328F8D0864884490988405C2C2845D00E
:100E8000834881490988405C28283FD080487E49B2
:100E90000988405C292839D07B480088401E7C495D
:100EA000085C282805D078480088401E085C2C285B
:100EB0000CD1774874490988405C303882B22046AA
:100EC000611CCCB2714921F81020C0E09FED711B6C
:100ED0009FED720B06F0B8FBB0EE408AF0EE608A30
:100EE00051EC180BFFF7AFF9C2B26948664909889F
:100EF000405C3038611E654B33F8111001FB020075
:100F000081B2601E1A4622F81010A0E060485E49C7
:100F10000988405C2928D8D15C48008854284AD1E7
:100F20005A488078401E56490870584841885D48A4
:100F3000534A127820F83210544880885949504A50
:100F4000127801EBC20148805048C08855494C4A8C
:100F5000127801EBC20188804D494B480088401C43
:100F6000085C00E069E04F49454A127801EBC20194
:100F700088714C4A424B1B7802EBC3025188494AA4
:100F80003F4B1B7812F8330002F0F8FA3C48007827
:100F900040B944483A49097800EBC1000079424918
:100FA000087045E03F483649097800EBC1000079F8
:100FB0003E4908703CE035480088432838D1334822
:100FC0008078401E2F4908703048408838492D4AA3
:100FD000127821F832002D4881883548294A127844
:100FE00000EBC2008180294880793149254A127876
:100FF00001EBC2018870264923480088401C085C28
:101000002B49204A127801EBC201887128481D49FA
:10101000097800EBC100807850B925481949097852
:1010200000EBC10080882349164A127821F812008B
:10103000164800210160002409E01548124909887A
:10104000425C2046611CCCB2104921F810200E48A9
:101050000088401C0C4908800D480988405C232802
:101060007FF4FCAE4FF400710948FFF7C8F8002088
:101070000549088001252846BDEC028B70BD0000A3
:1010800046010020470100203A0100203C010020D9
:10109000D2260020000000000000F03F0000000009
:1010A000000024408A380020480100204901002027
:1010B0001A3A00201025002010B50020FFF774FD1B
:1010C00010BD10B50020FFF76FFD04F031F810BD22
:1010D0002DE9F04105464FF0FF3600270020FE497C
:1010E0000870FE490870FE4908704021FD48FFF76E
:1010F00086F805EB4510FC4901EB400090F94100F2
:10110000401C00287ED1E6E2F84800782A280ED15B
:10111000F148007801280ADDEF480178F14800F035
:10112000B7FBED480078401EEB490870D3E2EF486A
:1011300000782B280ED1E848007801280ADDE6481F
:101140000178E84800F0E2FBE3480078401EE249FD
:101150000870C0E2E54800782D2809D1DE48007803
:10116000002805DDDC480178DE4800F0A9FBB2E28A
:10117000DE480078582813D10120D749087005EBC4
:101180004511D94A02EB410181F8410005EB4510B8
:10119000114601EB400090F84100D24908709AE2F4
:1011A000D2480078592814D10120CB49087000207A
:1011B00005EB4511CC4A02EB410181F8410005EBFA
:1011C0004510114601EB400090F84100C5490870F8
:1011D00081E2C648007800F0800000287ED0C34835
:1011E000007800F01F00401EC4B204EB4410BE495A
:1011F00001EB400090F94100401C00286FD0102CFA
:1012000010DA00E08BE204EB441001EB400090F8B0
:101210004110B14802780078401CAF4B1870B148BB
:10122000815447E20020AD49087004E0AB480078E3
:10123000401CAA490870AE48A849097800EBC100D3
:101240008179601C814203D0A44800783128EDDB0D
:10125000A748A249097830F83100002874D004EB7F
:101260004410A14901EB400090F8410001286CD1E5
:101270009F489A49097800EBC100808800287CD0FB
:101280009C4896490978405C08BB01219948934ADB
:101290001278815496489149097830F83100012834
:1012A00007D1954801F0F0FB8C480078934908700D
:1012B0000DE08F488949097830F83100012806DDB2
:1012C000864800788E4908708E4801F0DDFB88481A
:1012D0008249097830F83100012801E0EBE1E7E1CB
:1012E00034D18948007860B988487C490978415CE4
:1012F000794802780078401C774B187079488154FF
:10130000D8E181480078012802D100207E49087088
:1013100001207F49714A127821F812007B486F49F9
:101320000978405C80F0010178486C4A1278815459
:101330006A490978415C684802780078401C664B2D
:10134000187068488154B5E17EE04BE06848634915
:10135000097830F831000128D2DD6E48007868B98C
:101360006A485E490978425C5B4801780078401C15
:10137000594B18705B4842549CE122E06548007864
:10138000012802D100206349087001206049534AB6
:10139000127821F812005D4850490978405C80F0CD
:1013A00001015A484D4A127881544C490978415CF0
:1013B000494802780078401C474B187049488154CE
:1013C00078E101215148454A12788154434909780E
:1013D000415C414802780078401C3F4B18704148FE
:1013E000815467E143483D490978405C01281BD19D
:1013F00000204049394A127888544549374A1278C2
:1014000021F812004149354A127888543848334946
:10141000097830F83100012803D1374801F043FB47
:1014200002E0384801F03FFB04EB44102E4901EB89
:10143000400090F84110284802780078401C264B64
:1014400018702848815435E100202549087004E0CF
:1014500023480078401C224908702F482049097809
:1014600000EBC1008179601C814203D01C480078E8
:101470003128EDDB28481A49097830F83100002876
:101480009ED025481649097800EBC10080780128D4
:101490007ED122481249097830F811101E48104AAE
:1014A000127800EBC200808881424FD101211C4894
:1014B0000B4A127881540122074801780078401CB9
:1014C000054B18700748425416480549097830F80A
:1014D000110041F2883127E035010020460100204B
:1014E00047010020D2280020122900202D010020D1
:1014F0008A3800206E260020140A002045010020B2
:10150000440100208C0A00204A010020A02600206F
:10151000AC2400204B0100201A3A002010250020A6
:1015200074250020A6250020884249DB00211846AA
:1015300002780078401C18707C48815404F0DEFA70
:10154000FF217B487B4A1278815439E000207A4998
:10155000784A127888547949764A127821F812002C
:1015600004EB4410764901EB400090F8410001285B
:1015700018D16F486F4909784056401CB8B901200E
:101580006B496C4A127888546E486A49097800E0C1
:101590001AE030F81100401C6A49664A127821F8B6
:1015A000120004E0FF206249624A12788854002148
:1015B000654802780078401C634B18705B48815482
:1015C00000205C49087075E05E485A49097830F897
:1015D000110078BB01215848564A127881540122E3
:1015E000594801780078401C574B18704F484254B6
:1015F00052485049097830F8110041F28831884248
:1016000052DB0022184601780078401C18704748C9
:1016100042544E484749097800EBC1008188494847
:10162000444A127820F81210FF204949414A1278A2
:10163000885439E0FFE700203F493E4A1278885439
:1016400000213E483B4A127820F8121004EB441067
:101650003B4901EB400090F84100012816D13C487D
:10166000344909784056401CA8B901203849314A0C
:101670001278885433482F49097830F81100401EF9
:1016800030492C4A127821F8120004E0FF2130483A
:10169000284A1278815400222B4801780078401C97
:1016A000294B18702148425400202249087001E05B
:1016B00066B21EE00FE02748007800F00F012648D0
:1016C000007800F0F7F820490A780978491C1E4B89
:1016D00019701649885405EB4510194901EB400271
:1016E0003846791CCFB2105C1A49087000287FF484
:1016F0000BAD00BF701CB0B913480078012812D19F
:101700000A48007840B205EB45110D4A02EB410151
:1017100081F84100284600F0DDF846B203E0284693
:1017200000F0D8F846B2F0B2BDE8F081D22800202F
:101730000A2600204701002074250020A62500204D
:101740001229002010250020350100201A3A00201F
:101750003C2600202D0100200A01002000B587B0A2
:1017600000BF002001904648006840F00100444955
:1017700008600846006800F00100019000BF00BF4B
:1017800000BF002001900846006840F00400086097
:101790000846006800F00400019000BF00BF00BFD1
:1017A000002001900846006840F08000086008466C
:1017B000006800F08000019000BF00BF00BF002063
:1017C00001900846006840F0020008600846006882
:1017D00000F00200019000BF00BF4FF4886002904B
:1017E0000120039004900020059002A9254800F0F4
:1017F00067F94FF48060029001200390002004906C
:10180000059002A9204800F05BF983200290012096
:10181000039004900320059002A91B4800F050F9A2
:101820001B200290012003900220049003200590C9
:1018300002A9164800F044F9042002900020039009
:101840000120049002A9114800F03AF941200290C9
:101850000120039004900020059002A9094800F09F
:101860002FF94FF4E76002900120039004900320C9
:10187000059002A9034800F023F907B000BD00005D
:1018800030380240000402400008024000000240DC
:101890008A1E825C22B14A1E825C0AB1012300E0EA
:1018A00000238A1E83547047014890F90000704756
:1018B0002C0100204A1ED1B2084100F001007047FF
:1018C0004A1E825C0AB9012300E000234A1E8354A9
:1018D0007047000010B501460846002210E0431C86
:1018E000D8B21E2800D1002000EB4013064C04EBB8
:1018F000430393F941305B1C03B903E0531CDAB294
:101900001E2AECDB00BF10BD12290020084A127805
:10191000921E825C22B9064A1278521E825C0AB17B
:10192000012300E00023024A1278921E835470477C
:101930003501002001480078704700003701002081
:10194000014691F83500022803D080204865012027
:101950007047052081F835000868006820F0010014
:101960000A6810600020F3E731B500F0A1F90546E0
:10197000009C601C00B1641C00BF00F099F9401B82
:10198000A042FAD338BD0000F0B50C460025002275
:101990000023002181E0012606FA01F504EA050290
:1019A000AA4279D106684FEA410C032707FA0CF7DF
:1019B000BE430660CF0800F1200656F827604F07A7
:1019C0004FEAD76C0F2707FA0CF7BE434FEAD10C4A
:1019D00000F1200747F82C6086684FEA410C032786
:1019E00007FA0CF7BE438660476801268E40B7436E
:1019F0004760C6684FEA410C032707FA0CF7BE435D
:101A0000C660284E8F0856F827308E07370F0F26EE
:101A1000BE403340244EB04201D1002614E0234E94
:101A2000B04201D101260FE0214EB04201D1022681
:101A30000AE0204EB04201D1032605E01E4EB0421E
:101A400001D1042600E007268F073F0FBE409E42CB
:101A500022D18E07370F0F2606FA07F3114E8F0893
:101A600056F827609E430F4F4FEA910C47F82C60C1
:101A7000124E36689643114F3E603E1D36689643BF
:101A80003F1D3E603E1D366896433F1D3E603E1D35
:101A9000366896433F1D3E60491C1029FFF47BAF1A
:101AA000F0BD000008380140000002400004024080
:101AB00000080240000C024000100240003C0140BF
:101AC000F8B503460A460025002400200021CDE099
:101AD000012606FA01F5166806EA0504AC4273D140
:101AE0005668022E02D05668122E13D1CF0803F189
:101AF000200656F827004E07F70E0F26BE40B043CB
:101B00004F07FF0E1669BE403043CF0803F1200691
:101B100046F8270018684F000326BE40B0431679E8
:101B200006F003064F00BE40304318605668012E91
:101B300008D05668022E05D05668112E02D056687D
:101B4000122E13D198684F000326BE40B0434F00B9
:101B5000D668BE4030439860586801268E40B04336
:101B60001679C6F300168E4030435860D8684F008F
:101B70000326BE40B0434F009668BE403043D86055
:101B8000566806F08056B6F1805F6ED100BF002621
:101B90000096384E366846F48046364F3E603E46E4
:101BA000366806F48046009600BF00BF324E8F08AC
:101BB00056F827008E07370F0F26BE40B0432F4E32
:101BC000B34202D1002615E04FE02D4EB34201D1C1
:101BD00001260FE02B4EB34201D102260AE02A4E25
:101BE000B34201D1032605E0284EB34201D10426B9
:101BF00000E007268F073F0FBE4030431E4E8F0880
:101C000046F82700224E3068A043566806F4803616
:101C1000B6F5803F00D120431D4E3060361D306840
:101C2000A043566806F40036B6F5003F00D12043C5
:101C3000174E361D3060361D3068A043566806F4D6
:101C40008016B6F5801F00D12043114E0836306053
:101C5000361D3068A043566806F40016B6F5001F1E
:101C600000D120430A4E0C363060491C1029FFF485
:101C70002FAFF8BD44380240083801400000024050
:101C80000004024000080240000C02400010024024
:101C9000003C0140024613690B400BB1012000E0FB
:101CA000002070470AB1816101E00B048361704735
:101CB00001480068704700001801002002480068D1
:101CC000401C0149086070471801002010B50D48FC
:101CD000006840F400700B4908600846006840F452
:101CE000806008600846006840F480700860032047
:101CF00000F07AF80F2000F007F800F019F8002043
:101D000010BD0000003C024070B504460748006862
:101D10004FF47A71B0FBF1F5284600F0AEFD0022D9
:101D20002146501E00F021F8002070BD90000020D8
:101D30007047000000BF00F01F0201219140034ADC
:101D4000430942F8231000BF7047000080E100E023
:101D500000BF00F01F02012191404209920002F1F0
:101D6000E022C2F8001100BF70472DE9F05F804605
:101D70000D461646002701F05FFB074639462A4606
:101D8000334601F00700C0F1070ABAF1040F02D987
:101D90004FF0040A01E0C0F1070AD14600F1040A3D
:101DA000BAF1070F02D24FF0000A01E0A0F1030AD6
:101DB000D4464FF0010A0AFA09FAAAF1010A0AEA1E
:101DC000020A0AFA0CFA4FF0010B0BFA0CFBABF10A
:101DD000010B0BEA030B4AEA0B042146404601F0D3
:101DE00033FBBDE8F09F000000BF00F00702064B88
:101DF00019684FF6FF031940044B0B4343EA0221D5
:101E0000014B196000BF70470CED00E00000FA05BF
:101E100070B504460D4600266D48006800F00F00BE
:101E2000A84209D26A490D700846006800F00F0008
:101E3000A84201D0012070BD207800F002000228E5
:101E400007D16448006820F0F000A16808436149A8
:101E50000860207800F00100002877D06068012831
:101E600007D15C4808380068C0F34040B8B9012089
:101E7000E1E76068022802D06068032807D155486E
:101E800008380068C0F3406048B90120D3E75148E2
:101E900008380068C0F3400008B90120CBE74D487E
:101EA000006820F00300616808434A490860FFF7B2
:101EB000FFFE06466068012810D108E0FFF7F8FE33
:101EC000801B41F28831884201D90320B3E74148A1
:101ED000006800F00C000428F0D137E060680228A8
:101EE00010D108E0FFF7E4FE801B41F28831884200
:101EF00001D903209FE73748006800F00C0008284C
:101F0000F0D123E06068032810D108E0FFF7D0FE8D
:101F1000801B41F28831884201D903208BE72D488C
:101F2000006800F00C000C28F0D10FE008E0FFF78B
:101F3000BFFE801B41F28831884201D903207AE735
:101F40002448006800F00C000028F0D12048006808
:101F500000F00F00A84209D91D490D70084600681D
:101F600000F00F00A84201D0012064E7207800F0C3
:101F70000400042807D11748006820F4E050E16805
:101F8000084314490860207800F00800082808D1A8
:101F90001048006820F46040216940EAC1000D4902
:101FA000086000F04FF80B49096801F0F001F022D9
:101FB00092FAA2F2B2FA82F2D140074A515CC840CA
:101FC000064908600F20FFF79FFE002033E700005E
:101FD000003C024008380240949500089000002020
:101FE00001480068704700009000002000B5FFF72E
:101FF000F7FF0749096801F4E0514FF4E05292FA03
:10200000A2F2B2FA82F2D140024A515CC84000BD4D
:1020100008380240A495000800B5FFF7E1FF074922
:10202000096801F460414FF4604292FAA2F2B2FAF8
:1020300082F2D140024A515CC84000BD08380240DB
:10204000A495000870B50021002200230020274C31
:10205000246804F00C0424B1042C04D0082C41D1D1
:1020600003E0234840E023483EE0204C241F24683E
:1020700004F03F011D4C241F246804F4800484B143
:102080001C4CB4FBF1F5194C241F246847F6C076AC
:10209000344096FAA6F6B6FA86F6F44005FB04F24A
:1020A0000FE0134CB4FBF1F5104C241F246847F6E5
:1020B000C076344096FAA6F6B6FA86F6F44005FBEA
:1020C00004F20A4C241F246804F440344FF44035D1
:1020D00095FAA5F5B5FA85F5EC40641C6300B2FBF2
:1020E000F3F001E0024800BF00BF70BD08380240B5
:1020F0000024F40000127A0038B504460025207848
:1021000000F00100002874D0F748006800F00C00CF
:1021100004280DD0F448006800F00C00082813D102
:10212000F148001F006800F48000B0F5800F0BD16B
:10213000ED4808380068C0F34040002859D0606876
:10214000002856D1012038BD00BF6068B0F5803F3F
:1021500008D1E5480838006840F48030E249083981
:1021600008601EE06068B0F5A02F0DD1DE48083889
:10217000006840F48020DC4908390860084600689F
:1021800040F4803008600CE0D7480838006820F43C
:102190008030D549083908600846006820F480205E
:1021A000086000BF606890B1FFF782FD054606E059
:1021B000FFF77EFD401B642801D90320C3E7CA480E
:1021C00008380068C0F340400028F1D011E0FFF764
:1021D0006FFD054606E0FFF76BFD401B642801D943
:1021E0000320B0E7C04808380068C0F3404000282A
:1021F000F1D1207800F00200022869D1BA480068C5
:1022000000F00C0058B1B848006800F00C00082835
:1022100021D1B548001F006800F48000D8B9B24849
:1022200008380068C0F3400020B1E068012801D000
:10223000012088E7AC480838006820F0F800F82250
:1022400092FAA2F2B2FA82F2216991400843A649B9
:10225000083908603CE0E06828B30120A349086021
:10226000FFF726FD054606E0FFF722FD401B02288A
:1022700001D9032067E79C4808380068C0F3400094
:102280000028F1D098480838006820F0F800F822BB
:1022900092FAA2F2B2FA82F221699140084392497D
:1022A0000839086014E0002090490860FFF700FD3D
:1022B000054606E0FFF7FCFC401B022801D903207D
:1022C00041E7894808380068C0F340000028F1D190
:1022D000207800F0080008282CD16069A8B10120FE
:1022E00083490860FFF7E4FC054606E0FFF7E0FCE1
:1022F000401B022801D9032025E77B486C30006889
:10230000C0F340000028F1D014E0002078490860B4
:10231000FFF7CEFC054606E0FFF7CAFC401B02288B
:1023200001D903200FE770486C300068C0F340000B
:102330000028F1D1207800F0040004287FD100BFEC
:102340000020009068483830006840F080506649AE
:10235000383108600846006800F08050009000BFE7
:1023600000BF6448006840F4807062490860FFF76D
:102370009FFC054606E0FFF79BFC401B022801D9A5
:102380000320E0E65B48006800F480700028F2D08B
:1023900000BFA068012808D153486830006840F0A9
:1023A00001005149683108601DE0A06805280DD181
:1023B0004D486830006840F004004B4968310860BF
:1023C0000846006840F0010008600CE046486830AC
:1023D000006820F001004449683108600846006840
:1023E00020F00400086000BFA068A0B1FFF760FC07
:1023F000054608E0FFF75CFC401B41F2883188424B
:1024000001D903209FE6384868300068C0F34000D7
:102410000028EFD013E0FFF74BFC054608E0FFF77C
:1024200047FC401B41F28831884201D903208AE6EB
:102430002D4868300068C0F340000028EFD1A06943
:10244000F0B32948006800F00C00082871D0A0699A
:10245000022858D1002025490866FFF729FC0546C7
:1024600006E0FFF725FC401B022801D903206AE69D
:102470001D4808380068C0F340600028F1D1D4E955
:102480000701084347F6C07292FAA2F2B2FA82F24A
:10249000616A914008430122A16AC2EB51014FF4E5
:1024A000403292FAA2F2B2FA82F2914008434FF01F
:1024B000706292FAA2F2B2FA82F2E16A914000E00E
:1024C00039E008430849091F0860012007490866E8
:1024D000FFF7EEFB05460FE0FFF7EAFB401B022883
:1024E0000AD903202FE600000838024000004742C6
:1024F000800E47420070004010480068C0F3406002
:102500000028E9D017E000200D490866FFF7D0FB4E
:10251000054606E0FFF7CCFB401B022801D903204B
:1025200011E606480068C0F340600028F2D102E0DE
:10253000FFE7012007E6002005E600000038024022
:1025400000004742014691F85100704710B504461B
:102550000CB9012010BD606A00B900BF0021A16262
:1025600094F8510028B9002084F85000204600F06B
:1025700033F8022084F851002068006820F0400001
:1025800021680860D4E901010843E1680843216932
:10259000084361690843218B01F400710843E16934
:1025A0000843216A0843A16A08432168086004219E
:1025B000A06901EA1040616A084321684860206808
:1025C000C06920F400602168C861002060650120B6
:1025D00084F851000020BDE710B586B004461249CA
:1025E000206888421DD100BF002000900F4800687D
:1025F00040F480500D4908600846006800F480509F
:10260000009000BF00BFE020019002200290002057
:102610000390032004900520059001A90448FFF7CA
:102620004FFA06B010BD00000030014044380240AF
:10263000000002402DE9FE4F04460D4616461F4697
:10264000DDF830804FF0000A0020029081464FF004
:10265000010B019000BF94F85000012802D1022024
:10266000BDE8FE8F012084F8500000BFFFF720FB7B
:10267000814694F851A060680290BAF1010F0BD026
:102680000298B0F5827F04D1A06810B9BAF1040FA6
:1026900002D002200190D2E00DB106B117B901209D
:1026A0000190CCE094F85100012802D1052084F873
:1026B000510000206065A663E787A7872563E7864A
:1026C000A786206460642068006800F0400040280D
:1026D00005D02068006840F0400021680860E0688C
:1026E000B0F5006F43D1606810B1E08E012806D1CB
:1026F00028882168C860AD1CE08E401EE0862FE06F
:10270000BBF1000F10D0E08E70B12068806800F03F
:102710000200022808D128882168C860AD1CE08E1C
:10272000401EE0864FF0000BE08F68B120688068A3
:1027300000F0010040B12068C0683080B61CE08F16
:10274000401EE0874FF0010B08F1010040B1FFF798
:10275000AFFAA0EB0900404502D3032001906EE0E0
:10276000E08E0028CCD1E08F0028C9D142E060681B
:1027700010B1E08E012806D12878216808736D1CFD
:10278000E08E401EE0862FE0BBF1000F10D0E08EFF
:1027900070B12068806800F00200022808D115F8A6
:1027A000010B21680873E08E401EE0864FF0000B9D
:1027B000E08F68B12068806800F0010040B12068B7
:1027C000C06806F8010BE08F401EE0874FF0010B58
:1027D00008F1010040B1FFF76BFAA0EB090040459A
:1027E00002D3032001902AE0E08E0028CCD1E08FB4
:1027F0000028C9D14346012202212046CDF800908D
:1028000002F070FE10B10320019018E04A464146E4
:10281000204602F0C9FD20B1012001902020606512
:102820000DE0A06850B900BF002000902068C0688B
:10283000009020688068009000BF00BF00BF0120AA
:1028400084F8510000BF002084F8500000BF0198B8
:1028500006E7042808D14FF0E021096941F004019E
:102860004FF0E022116107E04FF0E021096921F00B
:1028700004014FF0E0221161704770B5044625460F
:10288000681EB0F1807F01D301200FE0681E4FF079
:10289000E02148610F214FF0FF3000F0D5FD00200E
:1028A0004FF0E021886107200861002070BD70476B
:1028B0007047024600BF92F83800012801D102207B
:1028C0007047012082F8380000BF022082F83900EA
:1028D0001068406820F07000136858601068406805
:1028E0000B681843136858601068806820F08000F7
:1028F00013689860106880684B6818431368986084
:10290000012082F8390000BF002082F8380000BFA3
:1029100000BFD5E710B50446022084F8390000BF97
:102920002068006A41F21111084050B92068006A1D
:102930008910084028B92068006820F0010021684B
:10294000086000BF204600F022F8002084F839001B
:1029500000BF84F8380000BF10BD10B504460CB9A4
:10296000012010BD94F8390028B9002084F83800FF
:10297000204600F00DF8022084F83900211D20685F
:1029800002F0FCFF012084F839000020E9E77047DD
:1029900038B504463848844218D100BF0020009062
:1029A0003648006840F00100344908600846006875
:1029B00000F00100009000BF00BF002203211C2096
:1029C000FFF7D3F91C20FFF7C3F953E02C49206827
:1029D00088421AD100BF002000902848001D0068DE
:1029E00040F001002549091D08600846006800F014
:1029F0000100009000BF00BF002201211920FFF755
:102A0000B4F91920FFF7A4F934E01E492068884280
:102A100018D100BF002000901848006840F0040062
:102A2000164908600846006800F00400009000BFE6
:102A300000BF012211461E20FFF797F91E20FFF765
:102A400087F917E000BF002000900C48006840F0B4
:102A500002000A4908600846006800F00200009081
:102A600000BF00BF002202211D20FFF77EF91D20BC
:102A7000FFF76EF938BD0000901A00204038024080
:102A8000000001400008004001460868C06840F0AE
:102A900001000A68D0600868006840F001000A6818
:102AA00010600020704701460868C06820F00100EF
:102AB0000A68D06000BF0868006A41F21112104035
:102AC00050B90868006A9210104028B90868006878
:102AD00020F001000A68106000BF002070472DE957
:102AE000F04104460D46002600BF94F83800012846
:102AF00002D10220BDE8F081012084F8380000BF37
:102B0000022084F839002068866826F0770626F4CB
:102B10007F4620688660286850283BD00CDC20283F
:102B200060D004DC002853D0102865D155E030284F
:102B30005DD0402860D141E0602835D070280DD0AC
:102B4000B0F5805F03D0B0F5005F55D115E0206887
:102B5000806820F00700216888604EE0D5E9021304
:102B60006A68206802F062FF2068866826F07706AF
:102B700046F07706206886603FE0D5E902136A6870
:102B8000206802F053FF2068806840F4804021688C
:102B9000886032E0EA686968206802F05DFF5021D1
:102BA000206802F04FFF28E0EA686968206802F0B8
:102BB00068FF6021206802F045FF1EE0EA6869684E
:102BC000206802F049FF4021206802F03BFF14E03A
:102BD0000021206802F036FF0FE01021206802F08B
:102BE00031FF0AE02021206802F02CFF05E03021AF
:102BF000206802F027FF00E000BF00BF012084F83A
:102C0000390000BF002084F8380000BF00BF71E722
:102C1000704710B5044620680069C0F34000D8B181
:102C20002068C068C0F34000B0B16FF002002168B6
:102C30000861012020762068806900F0030018B147
:102C40002046FFF7E5FF05E0204600F0ADF82046FE
:102C500000F0ABF80020207620680069C0F3800007
:102C6000D8B12068C068C0F38000B0B16FF0040034
:102C700021680861022020762068806900F4407095
:102C800018B12046FFF7C4FF05E0204600F08CF89D
:102C9000204600F08AF80020207620680069C0F302
:102CA000C000D8B12068C068C0F3C000B0B16FF0F8
:102CB000080021680861042020762068C06900F0BF
:102CC000030018B12046FFF7A3FF05E0204600F0FF
:102CD0006BF8204600F069F8002020762068006933
:102CE000C0F30010D8B12068C068C0F30010B0B1C4
:102CF0006FF0100021680861082020762068C06904
:102D000000F4407018B12046FFF782FF05E020462E
:102D100000F04AF8204600F048F8002020762068AD
:102D2000006900F0010058B12068C06800F001009F
:102D300030B16FF0010021680861204600F036F8DC
:102D400020680069C0F3C01058B12068C068C0F3A3
:102D5000C01030B16FF08000216808612046FFF795
:102D6000A6FD20680069C0F3801058B12068C068D3
:102D7000C0F3801030B16FF0400021680861204638
:102D800000F064F820680069C0F3401058B1206872
:102D9000C068C0F3401030B16FF0200021680861B6
:102DA0002046FFF785FD10BD7047704710B50446FB
:102DB0001D48844218D11D481D49097830F811007A
:102DC0001C490978884203DB01201B4908702AE06E
:102DD00016481749097830F81100401C1349144A65
:102DE000127821F812001EE01448844218D10F48CE
:102DF0001349097830F8110012490978884203DB39
:102E00000120114908700EE008480D49097830F892
:102E10001100401C05490A4A127821F8120002E00C
:102E2000204603F0BBFF10BD140A0020AC24002094
:102E300045010020480100204A0100208C0A0020A2
:102E400044010020490100204B010020704710B5CB
:102E500004460CB9012010BD242084F83900204616
:102E600000F0F2F80020E06384F8390084F83A00BA
:102E700000BF84F8380000BF00BFECE710B504467F
:102E8000204603F073FE10BD2DE9F047044620688C
:102E900005682068C668206847694FF00008C14689
:102EA00005F00F08B8F1000F0AD105F0200038B185
:102EB00006F0200020B1204602F028FFBDE8F08790
:102EC000B8F1000F6DD007F0010018B906F490704A
:102ED000002866D005F0010030B106F4807018B10A
:102EE000E06B40F00100E06305F0040030B107F052
:102EF000010018B1E06B40F00200E06305F0020051
:102F000030B107F0010018B1E06B40F00400E0635D
:102F100005F0080030B107F0010018B1E06B40F097
:102F20000800E063E06B68B305F0200028B106F00C
:102F3000200010B1204602F0E9FE20684069C0F38D
:102F40008019E06B00F0080010B9B9F1000F22D031
:102F5000204602F057FE2068406900F04000B0B102
:102F60002068406920F0400021684861606B50B1E2
:102F70001748616B0865606BFEF7E2FC10B1606B8F
:102F8000016D88470CE02046FFF778FF08E02046F7
:102F9000FFF774FF04E02046FFF770FF0020E063B6
:102FA0008CE705F0800030B106F0800018B12046B3
:102FB00003F0AEF882E705F0400030B106F04000C3
:102FC00018B1204602F02EFE78E700BF76E7000039
:102FD000F15B000810B504460CB9012010BDA069D2
:102FE00000B100E000BF94F8390028B9002084F84F
:102FF0003800204600F04CF8242084F8390020687E
:10300000C06820F400502168C860204602F0CCFE61
:103010002068006920F490402168086120684069B8
:1030200020F02A00216848612068C06840F4005000
:103030002168C8600020E063202084F8390084F80B
:103040003A000020CAE7000010B504460D4884424B
:1030500016D10D48006840F010000B490860084682
:10306000006820F01000086049150848FEF78CFC45
:103070004FF480610548FEF787FC2520FEF75AFED5
:1030800010BD0000CC1A002024380240000002408D
:1030900010B586B004463748844269D100BF00208D
:1030A00000903548006840F0010033490860084648
:1030B000006800F00100009000BF00BF00BF0020CA
:1030C00000900846006840F001000860084600686B
:1030D00000F00100009000BF00BF00BF0020009082
:1030E00025481430006840F010002349143108606E
:1030F0000846006800F01000009000BF00BF00BF4D
:10310000002000900846006840F4804008600846AF
:10311000006800F48040009000BF00BF4815019097
:1031200002200290002003900720059003200490C5
:1031300001A91248FEF7C4FC4FF4806001900720FB
:10314000059001A90D48FEF7BBFC4FF4805001909B
:10315000012003900720059001A90848FEF7B0FC64
:10316000002203212520FEF700FE2520FEF7F0FDBA
:1031700006B010BDCC1A00203038024000000240DA
:1031800010B5034693F83A00202829D101B10AB9B5
:10319000012010BD00BF93F83800012801D10220A2
:1031A000F7E7012083F8380000BF99629A85DA8535
:1031B0000020D863222083F83A0000BF002083F863
:1031C000380000BF1868406940F001001C68606169
:1031D0001868C06840F490701C68E0600020D8E770
:1031E0000220D6E710B50446204603F0C5FC10BD0A
:1031F0002DE9F84304460D4616461F464FF00009D8
:1032000094F8390020285CD105B116B90120BDE839
:10321000F88300BF94F83800012801D10220F6E7B6
:10322000012084F8380000BF0020E063212084F8EA
:103230003900FEF73DFD8146A684E6842BE0E08C54
:10324000401EE084A068B0F5805F16D14B46002296
:1032500080212046009702F08FFF08B10320D6E7B7
:10326000A846B8F80000C0F308002168486020694B
:1032700008B9AD1C0FE06D1C0DE04B46002280210B
:103280002046009702F078FF08B10320BFE715F849
:10329000010B21684860E08C0028D0D14B46002209
:1032A00040212046009702F067FF08B10320AEE7F7
:1032B000202084F8390000BF002084F8380000BFC7
:1032C000A5E70220A3E710B50446204603F08EFCD4
:1032D00010BD02E00020FDF767FCFBE770B5044677
:1032E0000D461646324629462046FEF7DBFC70BDE9
:1032F00070B504460D461646324629462046FFF76D
:10330000EDFF70BD70B504460D461646324629469F
:103310002046FFF7E3FF70BD70B504460D46164624
:10332000324629462046FFF7D9FF70BD10B500246C
:1033300017E0002004EB4411314A02EB410181F80F
:103340004000FF2004EB441102EB410181F84100F1
:1033500004EB441102EB41004021FCF750FF601CDC
:10336000C4B21E2CE5DB4FF400712648FCF747FF82
:1033700025480021016032212448FCF740FF32211A
:103380002348FCF73CFF2348FFF78DFB2248FFF75B
:103390008AFB01F0F9FE00201E49096848621E49B7
:1033A0000968486200BF25E000211C4A02EBC00208
:1033B00091801A4A22F8301002EBC0029171174A2C
:1033C00002EBC0025180164A02EBC0029170144A0F
:1033D00022F8301002EBC0029171114A02EBC002D8
:1033E00091800B4A22F8101001210E4A22F8101089
:1033F000411CC8B23228D7DB01200B49087010BD30
:1034000012290020D22600203C0100206E26002038
:1034100010250020140A00208C0A00208A38002081
:103420001A3A0020AC2400203701002002E00020DE
:10343000FDF7BAFBFBE7704702480068C0F30220C3
:10344000704700000CED00E010B5002807DA0A070D
:10345000140E054A00F00F031B1FD45403E00A07A3
:10346000130E024A135410BD18ED00E000E400E012
:103470002DE9F041044600250027002601203249AD
:10348000087000201AE000EB4011304A02EB4101C5
:1034900091F8401041B9002100EB40122B4B03EB97
:1034A000420282F8411007E0FF2100EB4012274B57
:1034B00003EB420282F84110411CC8B21E28E2DB35
:1034C00005E0E8B2FDF704FE45B2701CC6B202F09A
:1034D00057FB002804DD3C2E02DC681C0028F0D1DC
:1034E00002F04EFB68BBBCB101270020208000BF6A
:1034F0000FE000EB4011154A02EB410191F8411039
:10350000012904D121880122824011432180411CDC
:10351000C8B21E28EDDB14E0002010E000EB4011E3
:103520000A4A02EB410191F8401031B9002100EB49
:103530004012064B03EB42021154411CC8B21E2834
:10354000ECDB3846BDE8F0814C0100201229002058
:1035500010B50848FFF78CFF58B1FDF70DFB0120AF
:10356000FDF732FB03490878FDF7CEF9FF20024949
:10357000087010BD980000204C01002070B52DEDA2
:10358000068B86B005460C464FF6FF7008EE100A13
:103590000026002008EE900A9FED360AF0EE409AD1
:1035A00009EE100A9FED330AB0EE40AA09EE104A68
:1035B000B8EE480ADFED300A80EE801AB0EE41AA7C
:1035C000B0EE4A0A01F012FE08EE900AB8EE680A60
:1035D000F8EE490A20EE200ADFED280A80EE201AD4
:1035E000F0EE419AB0EE690A01F000FE461E012D90
:1035F0001DD12348FFF78EF922482149086008466B
:1036000046600021816080ED038A01614161FFF71E
:10361000A4F92803029002A91B48FFF760FA0020D2
:103620000090019069461848FFF743F91EE0012D0C
:103630001CDD1648FFF76EF9154814490860084666
:1036400046600021816080ED038A0161FFF785F902
:103650004FF48050029002A90C48FFF740FA002076
:103660000090019069460948FFF723F906B0BDECC8
:10367000068B70BD000000000024744C00007A44EA
:10368000140A002000000140B00100208C0A002034
:103690000008004010B5002280210448FEF702FB1C
:1036A000012280210148FEF7FDFA10BD000802400A
:1036B00010B526480078012843D10220244908701B
:1036C00000202249087001F067FF224802F0DAFF6B
:1036D000002830D02048FFF7CBFE002822D0FDF78D
:1036E0004BFA0120FDF770FA1B490878FDF70CF939
:1036F0001A48007880B9FEF71DF9012808D100208A
:10370000FDF762FA16A002F0A7FFFDF78FFB06E0B7
:1037100017A002F0A1FF02E017A002F09DFF01F048
:1037200033FD04E001F050FD17A002F095FFFF20EB
:103730001A49087008E01AA002F08EFF01F044FD5B
:1037400002E001200249087010BD0000A80000201E
:10375000AC000020540600209800002097000020B4
:103760003C524553455420444F4E453E0000000016
:103770003C444F4E453E00003C4641494C204F558D
:1037800054505554533E00003C4641494C20455846
:103790005052455353494F4E3E0000004C0100200B
:1037A0003C4641494C2053594E5441583E0000007C
:1037B000704700002DE9FE4306464FF00008C14661
:1037C00096F80080FE48007C40B9FE480168006819
:1037D000401CFC4A1060FC4800F80180FB4805F0E2
:1037E00078FAF8480068801EF749085C0D287DD1FA
:1037F000F4480068401E085C0A28F8D1F048807D33
:103800000028F4D1F24800780028F0D1F1A1EE4868
:10381000FCF700FD00283DD001F0A6FF72B6EA4893
:1038200001F010FA62B601F085FFE548407E88B9E4
:1038300072B6E6482838406B0090E4482838036B9D
:10384000C26A816A143005F0FCF962B6DF4805F0FF
:1038500040FA0AE0DA48407838B9DC4805F039FA2D
:103860000020D749487601204870D548C07E10B95D
:103870000020D34948760020D2490860D048807C97
:1038800030B1CF48407D18B10020CD494875FAE2EB
:10389000BDE8FE83D1A1CC48FCF7BCFC002875D064
:1038A000D0A1C948FCF7B6FC041E2AD020798DF8B7
:1038B000080060798DF809009DF8090030389DF8FE
:1038C0000810303901EB810100EB410081B2BF48A3
:1038D00028380186022180F8361072B6BB48283895
:1038E000406B0090B9482838036B00E05AE2C26A86
:1038F000816A143005F0A5F962B6B44805F0E9F91B
:10390000F6E0BAA1B048FCF785FC041E7FD0607ACF
:103910008DF80400A07A8DF80500E07A8DF8060095
:10392000207B8DF807009DF805000D2805D19DF836
:1039300004003038B049486346E09DF806000D2881
:103940000CD19DF8050030389DF80410303901EB9A
:10395000810100EB4100A849486335E09DF807006C
:103960000D2814D19DF804003038642110FB01F1BA
:103970009DF80500303800EB800001EB40019DF818
:103980000600303808449C4948631DE0C3E09DF8B8
:10399000040030384FF47A7110FB01F19DF80500F6
:1039A000303800EBC00202EB001001EB80019DF803
:1039B0000600303800EB800001EB40019DF8070065
:1039C000303808448C4948638B48406B18B101205B
:1039D0007B49C8738CE08848406B002890D18648AA
:1039E0004178C430405C68B1834840788349085CC2
:1039F00018B18149487801F077FB00217E48427870
:103A0000C430815400206E49087171E0FFE77CA149
:103A10006D48FCF7FFFB041E21D003216B482838BA
:103A200080F836102046FCF707FCA0F10B052A466B
:103A3000E11C71487130FCF7C9FB72B66348283845
:103A4000406B009061482838036BC26A816A143069
:103A500005F0F7F862B65D4805F03BF948E05C48D0
:103A6000407848B35A48407B28B36348807A00289E
:103A700004DD6148807A401E5F4988720020544905
:103A800048705D4989795D4A50545B4880795A494C
:103A9000487100204E494873494890F8290018B1F0
:103AA00001204749C87703E00120454981F82900F2
:103AB00000204349087118E001214448283880F863
:103AC0003410052180F8361072B640482838406B13
:103AD00000903E482838036BC26A816A143005F0B2
:103AE000B0F862B6394805F0F4F80020384948705B
:103AF0000020344908604FF400713348FCF77FFB25
:103B00002F48807C30B12E48407D18B100202C49D0
:103B10004875B8E1BCE63BA12B48FCF77BFB0028CD
:103B20004CD03AA12848FCF775FBB8B13DA003F092
:103B30004FFD0020264948704873214890F829001D
:103B400018B901201E4981F8290001212A488279EB
:103B5000C430815400201A49087195E03EA11A48EA
:103B6000FCF758FB48B10020154948740871887467
:103B7000087421498864C86486E0062113482838FF
:103B800080F8361072B611482838406B00900F4804
:103B90002838036BC26A816A143005F052F862B6A5
:103BA0000A4805F096F80648007910B1002004494B
:103BB0000871034890F8270008B15FE077E063E000
:103BC0004C1C002084000020400200201402002031
:103BD000781C002057494E443A0000000D0A4F4B14
:103BE0000D0A000049443A200000000044415441BD
:103BF0004C454E3A20000000801B00201F01002091
:103C0000203D20004552524F520000000D0A4552FF
:103C1000524F523A2050656E64696E672064617439
:103C2000610D0A000D0A4552524F523A20536F63FC
:103C30006B657420636F756C64206E6F74206265B1
:103C400020636C6F7365642E2E50454E44494E4779
:103C500020444154410D0A000D0A4552524F523A38
:103C60002044617461206D6F6465206E6F74206103
:103C70007661696C61626C650D0A00000020F9498B
:103C800081F82700F849C8660020F84908604FF419
:103C90000071F748FCF7B3FAF248807C30B1F14884
:103CA000407D18B10020EF494875ECE0F0E5F1A146
:103CB000EF48FCF7AFFAE8B3F0A1ED48FCF7AAFA39
:103CC00004461CB10020E849087202E00120E649E0
:103CD0000872ECA1E648FCF79DFA04461CB10020EE
:103CE000E149487202E00120DF4948720421E648B8
:103CF00080F8361072B6E448406B0090E248036BDF
:103D0000C26A816A143004F09CFF62B6DE48283033
:103D100004F0DFFF0020D54908604FF40071D4485B
:103D2000FCF76DFACF48807C40B1CE48407D28B189
:103D3000002000E003E0CB494875A4E0A8E5C948AD
:103D4000807CF0B1C748407DD8B1C648007FC0B97B
:103D5000C548406D58B172B6C348416DCA4804F0B9
:103D6000C5FF62B6C048416D3046FCF748FA0120F5
:103D7000BC4981F8280000204875BC480068BA4951
:103D80000865C248007800287DD1C04840790028E5
:103D900079D00020B54908604FF40071B448FCF7B1
:103DA0002EFA70E0AF488078002848D0B8A1B0481B
:103DB000FCF730FA002832D1B7A1AD48FCF72AFA57
:103DC00000282CD1B6A1AA48FCF724FA38BBB9A127
:103DD000A748FCF71FFA10BBB8A1A548FCF71AFAD0
:103DE000E8B9BBA1A248FCF715FAC0B9BCA1A0482C
:103DF000FCF710FA98B9BEA19D48FCF70BFA70B910
:103E0000C1A19B48FCF706FA48B9C6A19848FCF73F
:103E100001FA20B9C8A19648FCF7FCF928B30120A3
:103E20009049887508740020887005208E4988653F
:103E300000208C4981F827008B49C86628E58B480B
:103E40000068401E8A49085C09280FD1874800682D
:103E5000801E085C3A2809D184480068C01E085CAE
:103E6000312803D101207F4908760CE07F480068A3
:103E7000B0F5FF7F07D900207C4908604FF400713E
:103E80007B48FCF7BCF97748007C002850D0754887
:103E900090F8280000284BD17348406D724908659E
:103EA0000846006D714909680844B0F5007F1DD3CC
:103EB0006D48006D6D4909680844A0F2FF1572B69F
:103EC0002946714804F012FF62B66849096840F259
:103ED000FF12511A88192946FCF791F963480068C6
:103EE00040F2FF11081A6049086500BF5E490A6D7B
:103EF0005F495E4B1B68C8189549FCF767F95A483B
:103F0000006D5A4909680844584908600846006825
:103F1000012804D1564800780D2800D1B8E48DA1BD
:103F20005348FCF777F920B100204E4948750877CF
:103F300062E056480078E8BB4A48807DD0BB4C48D8
:103F40000078B8B34A4800780D2855D148484078E1
:103F50000A2851D14448806B02284DD001204149A4
:103F60000877AFF284314248801CFCF753F9041EF5
:103F70002ED03F48201A851C78A13D48801CFCF7B4
:103F800049F950B13A494819AFF2B031FCF742F95A
:103F9000044614B13648201A851D34480068401B79
:103FA00012D072B631480068411B374804F09EFEBB
:103FB00062B600E020E02D4A1268511B2C4A5019CD
:103FC000FCF71DF92948056000202649087700BF45
:103FD0000120244948752548006840F2FF118842B5
:103FE0000AD12048007F38B100201E490877487563
:103FF00040F2FF101C4908651A48407D00282ED168
:104000001848807C00282AD00120204908701648D2
:10401000406C1549096D084413494864114890F8EB
:10402000280018B100200F4981F828000E49896D39
:104030000F4A1144481F47A1FCF7ECF80446002C36
:104040000ED00A480068801E0949085C0D2807D177
:1040500006480068401E085C0A2801D184E0C1E1DE
:1040600004E100004C1C0020801B00208400002084
:10407000400200204750494F200000003D20302CD6
:10408000000000006F757400EC010020781C002017
:10409000323030204F4B0D00323030200D00000008
:1040A0003430302042616420526571756573740D3F
:1040B00000000000343030200D000000343031208A
:1040C000556E617574686F72697A65640D000000E1
:1040D00034303320466F7262696464656E0D00008F
:1040E000343034204E6F7420466F756E640D0000BE
:1040F00034303820526571756573742054696D656C
:104100006F75740D0000000035303020496E746505
:10411000726E616C20536572766572204572726FA3
:10412000720D0000353032204261642047617465B1
:104130007761790D000000003530342047617465E7
:104140007761792054696D656F75740D000000000A
:10415000441800204552524F523A200044415441E5
:104160004C454E3A00000000F7A1FE48FCF752F81B
:10417000041E23D0E07E68B1FA48251AFA48016887
:1041800005F11B000F1A72B63946F84804F0AEFD6F
:1041900062B600BF0020F4490860F5494864052074
:1041A00088654FF40071EF48FCF729F80120F149C8
:1041B00008750D20EE4981F8C300ABE4AFF2B451AD
:1041C000E848FCF727F8041E15D0E07D68B1E54803
:1041D000251AE548016805F117000F1A72B639462D
:1041E000E24804F083FD62B600BF0121E048827915
:1041F000C430815415E0E0A1DA48FCF70BF8041E46
:104200000FD0E07D68B1D748251AD748016805F17D
:1042100017000F1A72B63946D44804F067FD62B62B
:1042200000BF0020D2494864486388630520886540
:104230000020D749887408710874CE490861CA49BA
:104240000860CC490870D248407C48B10020D04971
:104250004874C749C8630120CD49087002F0FAFCD0
:104260004FF40071BF48FBF7CAFF53E4BE48006833
:10427000052804D91CB9BC480068BD498865BC48FC
:10428000406CBB49896B884279D3B948406CB849C6
:10429000896B884218D9B648406CB549896B451A74
:1042A00072B62946B14804F021FD62B6AE490968EC
:1042B000491BAC4A88182946FBF7A1FFAA480068A9
:1042C000401BA949086000BFA7480068A849886446
:1042D0000846806BC864A448A2490268AD48FBF751
:1042E00075FF0020A0490860A149486448638863BD
:1042F0000865052088650020A549487508740846AA
:10430000407CB8B100209A49C86388709948006918
:1043100020B198480069401E964908619548006997
:1043200020B901209A49087002F094FC00209849B5
:10433000C87409E001209649C8748D4840788C49BA
:10434000887001208B494870002091498874894900
:10435000087001F003FA8E48407C38B101208C4986
:10436000887700200871487403E008E0012088493C
:1043700048774FF400717B48FBF741FF96E47A4899
:104380000068B0F5FF7F2CD905207949886508467B
:10439000806BC86440F2FF108864734871490268FA
:1043A0007C48FBF713FF00206F4908600520704927
:1043B000886501F0D3F94FF400716A48FBF71FFFDD
:1043C0007348407C30B100206949887001207049F1
:1043D000887706E0664840786549887001206C4916
:1043E000487763E46A48807D00287DD001206149D8
:1043F00008705F49896D5B4A1144481FAFF624017C
:10440000FBF708FF041E51D0E079B8B15548251AD2
:1044100055480168A81D0F1A72B63946534804F072
:1044200065FC62B64F492944C81D3946FBF7E7FED3
:104430004D480068C01B4C49086000BF4A480068EE
:104440004B4988644848474902685248FBF7BEFE1A
:104450004548006846490863012046490875002020
:104460004B490874887501F079F90020404981F8BA
:10447000C3004049087046494875087105203C4909
:104480008865394801683748FBF7B9FE002036498E
:1044900008603F48C07D20B101203D4981F82300DC
:1044A00036E001203A4981F8220031E03049896D37
:1044B0002C4A1144481FAFF6B401FBF7ABFE10B312
:1044C00001202C4908750D20294981F8C3000020DE
:1044D000284908702E49087448752349086005204A
:1044E00023498865002000E086E0294988754FF45B
:1044F00000711C48FBF783FE2548C07D20B10020D9
:10450000234981F8230003E00020214981F822009B
:1045100015480068052803D91348006814498865C0
:104520001148006840F2FF11884264D10E480D49DD
:1045300002681848FBF74AFE17491648D0F8F921D7
:104540000A60B0F8FD0129E00D0A4552524F523A77
:1045500020546F6F206D616E7920736F636B65748B
:10456000730D0A004002002084000020EC010020AE
:10457000801B0020781C00200D0A4552524F523AF1
:1045800020536F636B6574206572726F720D0A0041
:104590004C1C0020441600208A0000208880D84847
:1045A0000021C0F8F911A0F8FD114FF40071D548B1
:1045B000FBF725FED348D4490A68026089888180C8
:1045C000D1480021016081800620D0490860052083
:1045D000CF49886540F2F910086301F0BFF8CD4873
:1045E000C07D20B10120CB4981F8230003E00120E8
:1045F000C84981F8220021E4C648407D00287DD1C9
:10460000C448007E002879D0C0480068801EBD499B
:10461000085C0D2873D1BD480068401E085C0A285C
:10462000F8D1BB4890F87000B949C978884267DA78
:10463000B9A1B448FBF7EEFD04468CB1A0798DF822
:104640000400E0798DF805009DF8050030389DF8EC
:104650000410303901EB810100EB4100B0490870D2
:10466000AF480078AA4991F8701001EB410202EBC3
:10467000C101AC4A126802F82100ABA1A148FBF7C6
:10468000C9FD04467CB1E0798DF80400207A8DF8EC
:1046900005009DF8050030389DF80410303901EB15
:1046A000810100EB4109C9F10001994890F87000BF
:1046B00000EB400202EBC0009A4A126802EB800055
:1046C00041609BA18F48FBF7A5FD044654B307202A
:1046D0009949087020E098480078225C8C4890F84E
:1046E000700000EB400101EBC0008E49096801EB4E
:1046F0008000083090490978C91F02E0CEE0C0E090
:1047000080E042548C480078401C8B490870084671
:104710000078232800D104E087480078205C27280F
:10472000D9D100BF85A17748FBF774FD044674B169
:104730000120774991F8701001EB410202EBC101B1
:10474000784A126802EB810181F826000DE0002012
:104750006F4991F8701001EB410202EBC101714AFF
:10476000126802EB810181F8260076A16548FBF70B
:1047700051FD044674B10121654890F8700000EBCA
:10478000400202EBC000674A126802EB800080F82A
:1047900027100DE000215E4890F8700000EB400209
:1047A00002EBC0005F4A126802EB800080F827101D
:1047B00066A15448FBF72EFD044674B1012154480C
:1047C00090F8700000EB400202EBC000554A1268FE
:1047D00002EB800080F828100DE000214C4890F892
:1047E000700000EB400202EBC0004E4A126802EB80
:1047F000800080F82810464890F87000401C44491A
:1048000081F87000AFF604413E48FBF703FD044613
:104810009CB14FF400713B48FBF7F1FC00203B4991
:10482000086001204B49087500203A490876487213
:104830000D20374981F8C300BFE447A13148FBF799
:10484000E9FCB0B1002033494872314981F8700069
:104850002E49086001203F49087500202D4908763F
:104860002B4981F8C3004FF400712648FBF7C7FCC1
:10487000A3E40020254908604FF400712148FBF7AC
:10488000BEFC22480068B0F5FF7F07D900201F4911
:1048900008604FF400711B48FBF7B1FC1D48407DD8
:1048A00058BB1C48007D40B32DA002F091FE2DA105
:1048B0001448FBF7AFFC044694B12DA002F088FE2B
:1048C0000120244908750020114981F8C3001149CD
:1048D00008750E4908604FF400710A48FBF78FFC19
:1048E0000A480068B0F5007F07D300200749086038
:1048F0004FF400710348FBF782FC00BF5DE4000049
:1049000044160020400200208A000020840000207D
:10491000801B00204C1C00204348414E3A00000000
:104920008900002028010020525353493A0000001A
:10493000535349443A00000088000020575041205A
:104940000000000057504132200000005750532013
:1049500000000000781C00204F4B0D0A00000000F2
:104960002A000000436F6D706C65746521000000C3
:104970000D0A55706461746520636F6D706C6574A9
:10498000650D0A0010B504462068001F43287DD23B
:10499000DFE800F022267C7C2A2E32363A7C7C3EF0
:1049A0007C7C7C7C437C484D527C575C7C7C7C606E
:1049B000657C7C7D817C867C91969EA3A87C7C7C9A
:1049C0007C7C7C7C7C7C7CAD7C7CC27C7CF6FCF33F
:1049D000CA7C7CF2F1F0EF0001217F48C177F9E059
:1049E00001207D490876F5E001217B484176F1E020
:1049F000012179488176EDE001217748C176E9E02F
:104A0000012175480177E5E0012173488177E1E0F4
:104A10000121714880F82010DCE001216E4880F807
:104A20002910D7E001216C4880F82A10D2E001213A
:104A3000694880F82B10CDE00121674880F82110EB
:104A4000C8E00121644880F82210C3E001216248D7
:104A50004177BFE00121604880F82510BAE05E4848
:104A6000007B401C5C4908730120087101215A48F1
:104A700080F8261059488079012806D1002057492E
:104A800088710872012081F82100A3E0A1E00020D4
:104A9000524948729EE001214F4880F82E1099E05B
:104AA00000204D49087100214B4880F82610012153
:104AB00080F827108EE00121474880F8281089E00F
:104AC0000020474908700121434880F82D1081E0FB
:104AD0000121414880F82F107CE001213E4880F8F8
:104AE000301077E001213C4880F8311072E03B48FB
:104AF000807C012803D10020384988740874207A0A
:104B000038494870084640783749085C18B1012098
:104B10003249C87408715DE0207A3249C8710120B9
:104B20002E4981F8200055E02E496068C8630120B5
:104B30002A49487408712848407960B9A07A012848
:104B400004D10020087002F09DF811E000202349F4
:104B5000487408710CE0012020490874052021499F
:104B6000886501201D4988741E48C06B1D498863F3
:104B700030E028E023E01BE016E010E006E0FFE76D
:104B80000120164948731949087023E00120134990
:104B90008873002016490870144908701AE0012132
:104BA0000D4880F8321015E001200C49087211E020
:104BB00000200A490872012081F821000AE0012042
:104BC0000649C87106E000200449C87100F0A6FD3E
:104BD00000E000BF00BF10BD781C00204C1C00206E
:104BE0001C010020801B00201F0100201D0100204F
:104BF0001E01002010B572B60F4803F01BFF0F49CD
:104C0000086262B60D48006A18B10C49086AFEF7DE
:104C1000D1FD0B48807E68B10848C06A401C074936
:104C2000C8620846C06A322804D90020C862044914
:104C30008876087110BD0000EC010020801B002068
:104C40004C1C00202DE9FC410646374634464FF007
:104C5000FF08002C74D0FEA13846FBF7DBFA0446AF
:104C6000002CF7D060798DF80400A0798DF805004C
:104C70009DF805003A2805D19DF80400303800F071
:104C8000FF080BE09DF8050030389DF8041030391E
:104C900001EB810100EB410000F0FF08EE48C0F895
:104CA0002880012180F83610B8F14B0F7CD2DFE864
:104CB00008F0F0EFEEEDECEBEAE9E8E7E6E5E4E337
:104CC000E2E1E0DFDEDDDCDBDAD97BD8D7D6D57BED
:104CD000D4D3D2D1D0CFCECDCCCBCAC9C8C7C6C50C
:104CE000C47B7BC3C2C1C0BFBE267BBD35BCBB7B02
:104CF0007B7B3F7BBAB9B87B7B7BB77BB600D7A108
:104D00003846FBF787FA044660798DF800009DF875
:104D10000000303881B2D0480186DBE1A07D8DF8FB
:104D200000009DF80000303881B2CB480186D1E107
:104D3000CC48407E28B1CCA002F04AFCBDE8FC8102
:104D4000CEE1C848807E18B10020C949C86203E09E
:104D50000120C44908718876C0A13846FBF75AFA89
:104D60000446002C5AD060798DF800009DF80000B0
:104D70003038C1B2B84880F83210207A8DF800007F
:104D8000607A8DF80100A07A8DF80200E07A8DF843
:104D900003009DF800003A2807D1E0798DF8000063
:104DA000207A8DF801002FE093E19DF801003A2868
:104DB00009D1E0798DF80000207A8DF80100607A41
:104DC0008DF8020020E09DF802003A280CD1E0792D
:104DD0008DF80000207A8DF80100607A8DF80200CD
:104DE000A07A8DF803000FE09DF803003A280BD15C
:104DF000E0798DF80000207A8DF80100607A8DF856
:104E00000200A07A8DF803009DF801003A2841D1F4
:104E10009DF8000030389649086481E08CE012E18A
:104E2000CEE0EFE0E9E00DE192E086E0DDE008E1D0
:104E300006E104E102E100E1FEE0FCE0FAE047E126
:104E400045E143E141E13FE1F3E03CE1F0E039E1FC
:104E500037E1ECE0EAE033E131E1E6E09BE02DE12F
:104E60002BE1E1E028E126E1DDE023E1DAE0D8E032
:104E7000D6E0D4E01DE1D1E0CFE019E117E10BE18C
:104E800014E112E1C8E0C6E00EE10CE1C2E0C0E0CE
:104E9000BEE0BCE09DF802003A280CD19DF801006C
:104EA00030389DF80010303901EB810100EB4100F2
:104EB0006F49086434E09DF803003A2813D19DF847
:104EC00000003038642110FB01F19DF801003038FA
:104ED00000EB800001EB40019DF8020030380844EF
:104EE000634908641CE09DF8000030384FF47A7183
:104EF00010FB01F19DF80100303800EBC00202EB1D
:104F0000001001EB80019DF80200303800EB8000BA
:104F100001EB40019DF8030030380844544908640F
:104F20005348016C4C48C16252480069401C5149C9
:104F3000086100204E490864CCE001204D49887189
:104F40000020487108614749487001204876C1E057
:104F5000002048498871012048710020414948706B
:104F60000120487608460078012804D1414880791C
:104F700008B901F06FFE3B48407C01280AD10520AA
:104F80003B49886501203749087488743848C06BEC
:104F9000374988639EE038A13846FBF73BF9044661
:104FA000112506E0625DA5F111003149B2310A54C4
:104FB0006D1C212DF6DD01212E4880F8231089E09B
:104FC00030A13846FBF726F90446112506E0625D5C
:104FD000A5F111002649B2310A546D1C212DF6DDD0
:104FE0000121244880F8241074E00020284908702A
:104FF0001C494870012048766CE00721164880F86B
:10500000361067E00821144880F8361062E000BFCF
:1050100000BF00BF00BF00BF00BF00BF00BF00BF98
:1050200000BF00BF00BF00BF00BF00BF00BF00BF88
:1050300000BF00BF00BF00BF00BF00BF00BF00BF78
:1050400000BF00BF00BF002006494870012021E0DA
:1050500057494E443A000000EC010020446174615D
:105060003A0000004C1C00203E3E49470D0A00005B
:10507000801B0020781C00202B57494E443A3238C0
:10508000000000002B57494E443A37320000000020
:105090001C01002048761DE01248007910B1002064
:1050A0001049087116E000BF00BF00BF00BF00BF7D
:1050B00000BF00BF00BF00BF00BF00BF00BF00BFF8
:1050C00000BF00BF00BF00BF00BF00BF00BF00BFE8
:1050D00000E000BF00BF4FF400713846FBF78FF8C7
:1050E00000BF2BE64C1C002038B5044601F0A2FAA4
:1050F0000D210A4880F83610048672B60748406BC6
:1051000000900648036BC26A816A143003F099FD6F
:1051100062B60248283003F0DCFD38BDEC01002007
:1051200010B500F055F908B1012010BD0020FCE7D2
:1051300010B500224FF480510948FCF7B3FD01225D
:1051400008490948FEF71CF8084981F83C00084660
:1051500090F83C0010B901200549087310BD00000B
:1051600000000240311C0020CC1A0020EC0100207D
:105170004C1C002010B54FF400610248FBF73FF8CB
:1051800010BD0000AC1C00200C480068006800F056
:1051900001000A490968086010B100200849088028
:1051A00008480068006800F00100064909680860C6
:1051B00010B100200249488070470000140A002006
:1051C000AC2400208C0A002010B540F2BC720249C9
:1051D0000248FAF7FBFF10BDCE3000201229002054
:1051E00001200149C8707047781C002070B52DED72
:1051F000048BB0EE408A9FED160A10EE105A002480
:105200000026BCEEC80AB8EE400A38EE400A10EE9E
:10521000105A2846FBF730F841EC190B9FED0D0BA7
:1052200053EC102BFBF73CF809D2B7EE000A38EE2E
:10523000000ABCEEC00A10EE104A264604E0BCEE9E
:10524000C80A10EE104A26463046BDEC048B70BDED
:1052500000000000000000000000E03F2DE9F041E8
:1052600004460D460026FFF785FF2B46224609A17E
:105270000D4802F0BDF90C48FAF7DEFF87B2384658
:1052800000F0F0FF064616B900F0DAFF0646304699
:10529000BDE8F08141542B532E534346473D2573BF
:1052A0002C25730D00000000AC1C00202DE9F041FE
:1052B00004460D460026FFF75DFF2B46224609A156
:1052C0000D4802F095F90C48FAF7B6FF87B2384658
:1052D00000F0C8FF064616B900F0B2FF0646304699
:1052E000BDE8F08141542B532E534346473D25736F
:1052F0002C25640D00000000AC1C002070B5044695
:105300000025FFF737FF224610A1134802F070F97D
:105310000021124880F826100F48FAF78DFF86B258
:10532000304600F09FFF05460DB1284670BD1B2199
:105330000A481830FAF763FF00E000BF074890F80A
:1053400026000128F9D12846F0E7000041542B43FC
:1053500046554E3D25640D00AC1C0020781C0020F5
:1053600070B504460025FFF705FF224608A10D4849
:1053700002F03EF90B48FAF75FFF86B2304600F0C4
:1053800071FF054615B900F05BFF0546284670BD64
:1053900041542B532E535349445458543D25730DB7
:1053A00000000000AC1C0020F8B504460D4616466F
:1053B0002B46002280212046009600F093F828B169
:1053C000606D40F0200060650320F8BD0020FCE720
:1053D00010B51848FDF7B6F810BB17481549086016
:1053E0004FF4827048600021124881604FF40061E0
:1053F000C1600021016141614FF400718161182198
:10540000C16100210162416281620A21C16200F032
:1054100015F80848FDF79AF804460CB1204610BD6F
:105420000448FDF78FF8012801D10020F7E701209B
:10543000F5E70000580100200030014000B587B0BA
:1054400000BF002001902448006840F0010022497C
:1054500008600846006800F00100019000BF00BF2E
:1054600000BF002001900846006840F0020008607C
:105470000846006800F00200019000BF00BF00BFB6
:105480000020019014481430006840F48050124904
:10549000143108600846006800F48050019000BF95
:1054A00000BF40200290022003900020049005904D
:1054B0000520069002A90948FCF702FB8020029013
:1054C00002A90648FCF7FCFA0820029002A9044849
:1054D000FCF7F6FA07B000BD303802400000024089
:1054E000000402402DE9F04104460E4617461D46D1
:1054F000DDF818803FE0681CE0B32DB1FCF7D8FB65
:10550000A0EB0800A84236D32068406820F0E000F5
:10551000216848606068B0F5827F0DD1A068B0F561
:10552000004F03D0A068B0F5806F05D120680068F7
:1055300020F0400021680860A06AB0F5005F0ED13D
:1055400000BF206800684DF6FF71084021680860C0
:105550002068006840F400502168086000BF012006
:1055600084F8510000BF002084F8500000BF0320E1
:10557000BDE8F081FFE7206880683040B04201D18B
:10558000012000E00020B842B5D10020F0E710B5BE
:105590000020FBF709FB10BD10B540F2BC720249B8
:1055A0000248FAF713FE10BD12290020CE30002069
:1055B00070B50024FFF7DEFD08A10A4802F018F8D4
:1055C0000848FAF739FE85B2284600F04BFE04463B
:1055D00014B900F035FE0446204670BD41542657EC
:1055E0000D000000AC1C002001200A49C870887121
:1055F000002008734875C875887508610875012012
:10560000054908704870002081F82700012081F8C2
:1056100029007047781C00204C1C002000200949FC
:105620008872C8624863C863086448644865052096
:1056300088650020C8654866886681F87000C8667D
:1056400070470000801B002070B50025FFF792FD19
:1056500003F0AEFB0D4840780D49085CA0B10D4841
:10566000007910B901200B490871084842780AA155
:105670000D4801F0BDFF0C48FAF7DEFD84B220466C
:1056800000F0F0FD054600BF70BD0000801B00204B
:105690001F0100204C1C002041542B532E534F431C
:1056A0004B513D25640D0000AC1C002070B5044634
:1056B000002503F07DFB11484278234610A11548D0
:1056C00001F096FF1348FAF7B7FD86B2304600F0B6
:1056D000C9FD054685B91048007910B901200E4969
:1056E00008710648846301200B498874052003492A
:1056F0008865012008490874284670BD801B002079
:1057000041542B532E534F434B523D25642C25645B
:105710000D000000AC1C00204C1C0020012003499F
:1057200081F8250000200249486670474C1C002083
:10573000801B00200020024988600120887070478B
:10574000781C00200020034981F8250002494866A2
:10575000704700004C1C0020801B002000200149E5
:10576000C8707047781C002000200349886088704A
:105770000120487570470000781C002010B500BF5C
:1057800021482249097800EBC100808880B1204877
:105790001E490978405C01280AD11E481B49097836
:1057A00030F81100401C1B49184A127821F81200E9
:1057B00016480078401C15490870084600783228C1
:1057C000DEDB0020087014480078012816D013484A
:1057D0000078012805D1FDF7BBFEFF200E490870B7
:1057E0000CE00E480078022803D0FCF75DF8012891
:1057F00004D1FDF7ADFEFF2007490870FCF75EFA03
:1058000001F058FA10BD00001A3A002047010020AC
:1058100074250020A62500204C010020AC000020AB
:1058200010B592B000BF002000902948006840F0F9
:105830008050274908600846006800F080500090BA
:1058400000BF00BF00BF002000902248006820F485
:10585000404040F400401F4908600846006800F4DA
:105860004040009000BF00BF012006904FF4A020F0
:10587000079002200C9041050D9108210E91C10165
:105880000F9104211091119106A8FCF735FC08B185
:10589000FBF717FC0F2001900220029000200390DC
:1058A0004FF48050049000200590022101A8FCF7DD
:1058B000AFFAFCF795FB4FF47A71B0FBF1F4204698
:1058C000FCF7DBFF0420FCF7C4FF12B010BD0000A2
:1058D00040380240007000401448006840F47000F6
:1058E000124908601248006840F001001049086041
:1058F00000200F49083108600D4800680D49084034
:105900000B4908600C48091D0860081F006820F456
:105910008020091F0860002005490C3108604FF005
:1059200000600249803908607047000088ED00E09F
:1059300000380240FFFFF6FE1030002410B5024888
:10594000FDF767F910BD0000140A002010B50248E9
:10595000FDF75FF910BD0000901A002010B5024855
:10596000FDF757F910BD0000541A002010B5024889
:10597000FDF74FF910BD00008C0A002000220268DC
:10598000234B98420BD0B0F1804F08D0214B984266
:1059900005D0214B984202D0204B984201D10123DF
:1059A00000E000231BB122F070024B681A43184B31
:1059B000984214D0B0F1804F11D0164B98420ED0BF
:1059C000154B98420BD0154B984208D0144B984277
:1059D00005D0144B984202D0134B984201D10123B9
:1059E00000E000231BB122F44072CB681A4302602E
:1059F0008B68C3620B688362054B984201D1012317
:105A000000E000230BB10B6903630123436170477E
:105A1000000001400004004000080040000C00406D
:105A200000400140004401400048014030B50C46B0
:105A30000021816821F47F4142EA0325254329435F
:105A4000816030BD0A460021816821F0700142F07A
:105A5000070319438160704730B50B461446002197
:105A60000022026A056A25F001050562816921F0BC
:105A7000F00141EA041122F00A021A438161026234
:105A800030BD30B50B46144600210022056A25F0D2
:105A9000100505628169026A21F4704141EA04310E
:105AA00022F0A00242EA03128161026230BD0000CE
:105AB00010B50E48006842F21071B0FBF1F0401EC4
:105AC0000B4908600B480C49086063210A48C16013
:105AD0000748006808494860002107480161816063
