:020000040800F2
:10000000C029002075B70008795300087B53000809
:10001000855300088F530008995300080000000022
:10002000000000000000000000000000A3530008D2
:10003000AD53000800000000B7530008CD5300087E
:1000400041B9000845B9000849B900084DB9000890
:1000500051B9000855B9000859B900085DB9000840
:1000600061B9000865B9000869B900086DB90008F0
:1000700071B9000875B9000879B900087DB90008A0
:1000800081B9000885B9000889B90008000000009E
:100090000000000000000000000000008DB9000812
:1000A00091B900085F54000895B9000899B9000893
:1000B000C3530008B9530008695400089DB90008EB
:1000C000A1B90008A5B90008A9B90008ADB9000890
:1000D000B1B90008175500082155000800000000BC
:1000E000B5B90008B9B90008BDB9000800000000A2
:1000F000000000000000000000000000C1B900087E
:1001000000000000C5B90008C9B90008CDB9000851
:1001100000000000000000000000000000000000DF
:10012000D1B90008D5B90008D9B90008DDB900086F
:10013000E1B900080000000000000000000000001D
:10014000000000000000000000000000E5B9000809
:10015000E9B90008EDB90008F1B90008F5B90008DF
:10016000F9B90008FDB90008000000000000000017
:10017000000000000000000000000000000000007F
:100180000000000001BA00080000000000000000AC
:1001900005BA000870B54FF48061DFF8280C02F052
:1001A00013FF0020DFF8241B08730020DFF8201B5A
:1001B000087000F0F6F800F04EF800F019F832215F
:1001C000DFF8100B03F04AF800F066FD0824002564
:1001D000DFF8046B2A002100300003F007F9DFF894
:1001E000740C03F075F9002801D002F08FFD70BD8A
:1001F0000120DFF8D81AC8700120DFF8D01A887102
:100200000020DFF8C81A08730020DFF8C01A48750C
:100210000020DFF8B81AC8750020DFF8B01A88751A
:100220000020DFF8A81A08610020DFF8A01A08757E
:100230000120DFF8801C08700120DFF8781C48706E
:100240000020DFF8701C81F827000120DFF8641C13
:1002500081F8290070470020DFF85C1C88720020BC
:10026000DFF8541CC8620020DFF84C1C48630020F3
:10027000DFF8441CC8630020DFF83C1C0864002041
:10028000DFF8341C48640020DFF82C1C486505208A
:10029000DFF8241C88650020DFF81C1CC8650020DE
:1002A000DFF8141C48660020DFF80C1C886600206C
:1002B000DFF8041C81F870000020DFF8FC1BC86622
:1002C000704770B582B000200090DFF88C0B00689A
:1002D00050F00400DFF8801B0860DFF87C0B00683A
:1002E00010F004000090009800200090DFF8680BE8
:1002F000006850F00100DFF8601B0860DFF8580B61
:10030000006810F00100009000984FF48050DFF872
:10031000B41A08640120DFF8AC1A48640120DFF841
:10032000A41A88640320DFF89C1AC864DFF88C1BC9
:10033000DFF88C0B03F0E2FA0020DFF8881B81F86D
:1003400026000020DFF8881908701B240025DFF83C
:10035000786B2A002100300003F048F800224FF4A7
:100360008051DFF85C0B03F05AFCC82003F078FCE6
:1003700001224FF48051DFF8480B03F050FC32208B
:1003800003F06EFC4FF48051DFF8340B03F099FB5F
:10039000DFF8300B90F82600012801D000BFF7E706
:1003A00073BD80B500224FF48051DFF8200B03F0BD
:1003B00036FC0122DFF8181BDFF8180B03F023FDD1
:1003C000DFF8001A81F83C00DFF8F80990F83C00EB
:1003D000002803D10120DFF8DC1A087301BD2DE9E4
:1003E000F04182B004000025DFF8C80A0079002837
:1003F00040F0198272B6DFF8DC0802F097FFDFF8F0
:10040000D81A886362B6DFF8D00A806B002800F043
:100410000A82DFF8C40A806B407B012840F0038227
:10042000DFF8B40A806B807B002800F0FC81022892
:1004300024D01DD3042800F0E681C0F0E481062812
:1004400000F0D781C0F0DF81082800F0E781C0F01C
:10045000E4810A2800F0A48048D30C2800F0DB8057
:10046000C0F048810E2800F09481C0F00581DAE1E7
:10047000DFF8640A806B02F03FFAD4E1DFF8380A53
:10048000807A401CDFF8301A88720020DFF8241AC6
:1004900081F827000020DFF8201AC866DFF8180A64
:1004A000807A092809DB0120DFF82018087504206C
:1004B000DFF8041A81F8C300B5E10120DFF818184D
:1004C000DFF8142A926B12898854DFF80C0A806BCB
:1004D0000089DFF8E41908700120DFF8F0170875CB
:1004E0000020DFF8D41981F8C3009CE102F0FAFB88
:1004F000DFF8C4094069002809D0DFF8BC09426967
:10050000DFF8D819DFF8D80903F0CEFF21E0DFF8D3
:10051000A809006E002810D0DFF89C09006E00903A
:10052000DFF894090369DFF89009C268DFF8B419AD
:10053000DFF8AC0903F0B8FF0BE0DFF87C090369D2
:10054000DFF87409C268DFF8A019DFF8940903F036
:10055000ABFFDFF88C0903F0C1FF80B202F0DDFBD6
:100560000500EDB2002D11D10020DFF84C19C8664E
:100570000120DFF8401981F827000120DFF8341945
:1005800008710120DFF82C19887008E00D20DFF8D1
:10059000281981F8C3000120DFF83017087542E1FF
:1005A00002F0A0FBDFF81009038DDFF80C090279D7
:1005B000DFF83819DFF8280903F076FFDFF82009A3
:1005C00003F08CFF80B202F0A8FB0500EDB2002D15
:1005D00014D102F087FBDFF8E008068DDFF8D808B9
:1005E000476ADFF8FC8832003900404603F092FF8A
:1005F000DFF8C408008D02F090FB0500EDB2002D7D
:1006000008D00120DFF8C41608750D20DFF8A818FF
:1006100081F8C30007E102F065FBDFF89C08806900
:100620000090DFF89408036EDFF88C08C268DFF8EA
:10063000C018DFF8AC0803F037FFDFF8A40803F0B8
:100640004DFF80B202F069FB0500EDB2002D09D02C
:100650000120DFF8781608750D20DFF85C1881F8A6
:10066000C30008E00020DFF85018C8660120DFF85A
:10067000441881F82700D6E0DFF85C06DFF8581848
:10068000896B0989405C00282FD002F02BFBDFF832
:100690004808806B0289DFF85C18DFF8440803F033
:1006A00003FFDFF83C0803F019FF80B202F035FBCE
:1006B0000500EDB2002D1CD10020DFF8FC1781F8F9
:1006C000C3000120DFF8EC170871DFF80C08806B1D
:1006D0000089DFF8E41788710120DFF8F01548730E
:1006E0000120DFF8E815487003E0DFF80C0803F09C
:1006F0004DFF98E002F0F6FADFF8BC07C069002869
:1007000006D1DFF8F817DFF8D80703F0CDFE1EE0BA
:10071000DFF8A407C068002809D1DFF89C07C26988
:10072000DFF8DC17DFF8B80703F0BEFE0FE0DFF8F4
:100730008807006E0090DFF88007C369DFF878074C
:10074000C268DFF8C017DFF8980703F0ADFEDFF8E6
:10075000900703F0C3FE80B202F0DFFA0500EDB2AD
:10076000002D0CD10120DFF84C1788750120DFF82F
:10077000441708740120DFF83C17C87508E0012011
:10078000DFF8481508750D20DFF82C1781F8C30035
:1007900049E002F0A7FADFF82007006E0090DFF8CA
:1007A0001807C369DFF81007C268DFF85C17DFF8C5
:1007B000300703F079FEDFF8280703F08FFE80B2E0
:1007C00002F0ABFA0500EDB2002D08D10120DFF8F0
:1007D000E41608750120DFF8DC16087408E0012033
:1007E000DFF8E81408750D20DFF8CC1681F8C30097
:1007F00019E00120DFF8D41408750D20DFF8B816D1
:1008000081F8C3000FE00120DFF8C0140875002054
:10081000DFF8A41681F8C30005E004E00120DFF84A
:10082000AC140875FFE7DFF88C06C07B01280AD1FD
:10083000DFF88406406B80B204F0F3F80020DFF8A4
:100840007416C873CDE0DFF86C06C07C01280BD1AC
:10085000DFF87804C078012806D104F019F90020E7
:10086000DFF85016C874BCE0DFF84806407F012866
:100870001DD1DFF84406836CDFF83C06C26CDFF85C
:100880008C16DFF83406807804F080FB4FF4007695
:100890000027DFF878863A003100404602F0A6FDD6
:1008A00000F00FFA0020DFF80C16487799E0DFF827
:1008B0000406807F01281BD1DFF8FC05836CDFF87C
:1008C000F805C26CDFF84416092004F05FFB4FF412
:1008D00000760027DFF834863A003100404602F007
:1008E00085FD00F0EEF90020DFF8C815887778E084
:1008F000DFF8C00590F82000012812D1DFF8D803F6
:10090000DFF8B415C979405C002804D0DFF8A805E9
:10091000C07902F0ADF90020DFF8981581F82000C9
:100920005FE0DFF89005C07F012808D1DFF8E0051F
:1009300004F0CAFB0020DFF87C15C87751E0DFF82F
:10094000740590F82200012818D1DFF86C05016BBE
:10095000DFF8B80504F0B9FB4FF400760027DFF8A4
:10096000AC853A003100404602F040FD00F0A9F9A4
:100970000020DFF8401581F8220032E0DFF834056E
:1009800090F82300012815D1DFF8800504F09EFBC4
:100990004FF400760027DFF874853A0031004046B6
:1009A00002F024FD00F08DF90020DFF8081581F831
:1009B000230016E0DFF8FC04407B012806D104F098
:1009C00033FB0020DFF8EC1448730AE0DFF8E4049E
:1009D000807B012805D104F031FB0020DFF8D4141E
:1009E0008873BA4890F8260001280AD1B748007BDE
:1009F000022806D1B548007B401CB449087304F0B6
:100A00000BFBB24890F8210001280DD1B0480078C6
:100A1000002804D10120AE49087004F001FB002039
:100A2000AA4981F8210035E1A84890F82200012860
:100A300006D104F04CFB0020A44981F8220029E1F2
:100A4000A24890F82300012808D1DFF8C80404F078
:100A5000FDFA00209D4981F823001BE19B4890F896
:100A60002400012808D1DFF8AC0404F0F0FA0020DB
:100A7000964981F824000DE1DFF8380490F826004B
:100A8000012807D104F024FB0020DFF8281481F8A6
:100A90002600FFE0DFF81C0490F82100012807D1B0
:100AA00004F016FB0020DFF80C1481F82100F1E0BF
:100AB0008648007E012806D100208449087611204E
:100AC00004F007FBE6E08148407E012806D10020C3
:100AD0007E494876142004F0FCFADBE07B48807EF7
:100AE000012806D1002079498876132004F0F1FA14
:100AF000D0E07648C07E012806D100207349C87630
:100B0000152004F0E6FAC5E07048007F012806D100
:100B100000206E490877162004F0DBFABAE06B4833
:100B2000407F012806D10020684948771B2004F047
:100B3000D0FAAFE0654890F82500012807D10020E1
:100B4000624981F825001C2004F0C3FAA2E05F4846
:100B5000807F012806D100205C498877172002F0A9
:100B60002DFA97E05948C07F012806D10020574947
:100B7000C877122002F022FA8CE0544890F8200046
:100B8000012807D10020514981F82000182002F0E7
:100B900015FA7FE04D4890F82800012807D1002081
:100BA0004A4981F828001D2004F094FA72E0474871
:100BB00090F82D00012807D10020444981F82D002C
:100BC0001E2004F087FA65E0404890F829000128CB
:100BD00007D100203D4981F82900192004F07AFA54
:100BE00058E03A4890F82A00012807D100203749F8
:100BF00081F82A001A2004F06DFA4BE0334890F88F
:100C00002B00012807D10020304981F82B00062055
:100C100004F060FA3EE02D4890F82E00012807D13C
:100C200000202A4981F82E001F2004F054FA31E0F8
:100C3000264890F82F00012807D10020234981F889
:100C40002F00202004F047FA24E0204890F83000DC
:100C5000012807D100201D4981F83000212004F02F
:100C60003AFA17E0974890F83100012807D10020A0
:100C7000944981F83100222004F02DFA0AE09148CD
:100C800090F83200012805D100208E4981F8320009
:100C900004F022FABDE8F38100208A49886001202F
:100CA00088498870704700208649886000208549FF
:100CB0008870012083494875704700208149C870B9
:100CC000704701207F49C87070470000946200207F
:100CD000B16300205C5E00204863002080B5794845
:100CE0008078002805D07748C078012801D100F02D
:100CF000BAF8704890F8240001280AD1314802F06F
:100D000078F9002805D000206A4981F82400FFF70F
:100D100048FB6848407900280ED06748806E411C27
:100D2000654A916640F26C71884205D300206149A2
:100D300048710020604988665E4890F827000028C6
:100D40001BD05D48C06E401C5B49C8665A48C06EE7
:100D500044F62161884210D300205749C86600201C
:100D6000544981F827000D20534981F8C300012020
:100D70005449087500204F4908714E4890F82500E5
:100D800000281DD04C48406E411C4B4A5166B0F5BE
:100D9000FA6F15D34748C079012807D1012045498A
:100DA000C8710020434981F8260007E04148C07916
:100DB000002803D101203F4981F8260001F0FAFF05
:100DC00001BD0000485E002001213E4AD1757047F8
:100DD00010B50400002037490873FFF764FF72B6AE
:100DE0003B493D4802F01EF962B6FFF755FF3A480D
:100DF00002F0F4F800280AD001202E4981F82400DE
:100E000001224FF48051314802F009FF13E02948D4
:100E1000C07A00280FD101222D492E4802F0F3FF9D
:100E20002D4981F83C002C4890F83C00002802D164
:100E300001202049087310BD2248007D012801D0FF
:100E400000BFF9E700201F4908751B4890F8C30050
:100E500070470000746000203038024010B5040074
:100E600001F054FF10BD80B572B61B4802F0FCF8CB
:100E70001149086262B61048006A002803D00E4883
:100E8000006A00F049F80B48807E002811D00A481B
:100E9000C06A401C0849C8620748C06A332808D3A2
:100EA00000200549C86200200249887600200149D7
:100EB000087101BDC8620020785B0020885E0020B8
:100EC0000008024094620020AC6200200000024052
:100ED000295C00207C5F0020485E00205CB5000893
:100EE000C02B002030B4000870B5000884B500089D
:100EF00030B3000834B7000848B40008F0B7000861
:100F000044B70008B8B200084CB30008585200209B
:100F10007D5B00202A5C00202DE9F04F8BB005009E
:100F200000208DF808000020039028788DF8080034
:100F3000DFF8A40D007C00280ED19DF80800DFF832
:100F40009C1DDFF89C2D12688854DFF8940D006812
:100F5000401CDFF88C1D0860DFF8880D02F034FAC1
:100F6000DFF8780DDFF8781D0968084410F8020CE6
:100F70000D2840F06B83DFF8640DDFF8641D09680D
:100F8000084410F8010C0A2840F06083DFF8480D8F
:100F9000807D002840F05A83DFF84C0D007800284F
:100FA00040F05483DFF8441DDFF8300D04F095F86D
:100FB000002855D0FFF777FE72B6DFF8200D01F05C
:100FC00067FA62B6FFF768FEDFF80C0D407E002876
:100FD00017D172B6DFF80C0D83B06946D0E9002353
:100FE000C1E90023D0E90223C1E902230EBCDFF8E6
:100FF000000D02F053F962B6DFF8E80C02F0E4F9F4
:1010000010E0DFF8D40C407800280BD1DFF8D40CC6
:1010100002F0DAF90020DFF8C01C48760120DFF882
:10102000B81C4870DFF8B00CC07E002803D1002047
:10103000DFF8A41C48760020DFF8A41C0860DFF865
:10104000980C807C002809D0DFF88C0C407D0028AB
:1010500004D00020DFF8801C4875A6E301F0F1B948
:10106000DFF8901CDFF8740C04F037F8002800F06B
:101070008881DFF8841CDFF8640C04F02EF804008B
:10108000002830D020798DF80A0060798DF80B00A7
:101090009DF80A000A2110FB01F09DF80B1050FA90
:1010A00081F0B0F50470DFF8541C08860220DFF8E8
:1010B0004C1C81F8360072B6DFF8280C83B0694604
:1010C000D0E90023C1E90023D0E90223C1E90223CA
:1010D0000EBCDFF81C0C02F0E1F862B6DFF8040C7D
:1010E00002F072F92EE1DFF8181CDFF8F00B03F0C4
:1010F000F4FF0400002800F08E80607A8DF8040070
:10110000A07A8DF80500E07A8DF80600207B8DF836
:1011100007009DF805000D2806D19DF80400303821
:10112000DFF8E01B486341E09DF806000D280CD174
:101130009DF804000A219DF8052001FB0020B0F570
:101140000470DFF8C01B486330E09DF807000D28ED
:1011500013D19DF8040064219DF805200A235A4309
:1011600001FB00209DF8061050FA81F0DFF8981B73
:101170000818DFF8901B486318E09DF804004FF44E
:101180007A719DF8052064235A4301FB00209DF8E5
:1011900006100A2202FB01009DF8071050FA81F0A8
:1011A000DFF8681B0818DFF85C1B4863DFF8540B96
:1011B000406B002804D00120DFF81C1BC873C1E07D
:1011C000DFF8400B406B002840F0BC80DFF8340BA8
:1011D000DFF8301B4978084490F8C400002815D087
:1011E000DFF82C0BDFF81C1B4978405C002804D08A
:1011F000DFF8100B407801F03BFD0020DFF8041B06
:10120000DFF8002B5278114481F8C4000020DFF889
:10121000C81A087196E0C3A1DFF8C00A03F05DFFA9
:101220000400002829D00320DFF8D01A81F8360006
:10123000200003F053F9B0F10B06E71CDFF8D48A65
:1012400032003900404603F065F972B6DFF8940ABF
:1012500083B06946D0E90023C1E90023D0E9022325
:10126000C1E902230EBCDFF8880A02F017F862B663
:10127000DFF8700A02F0A8F864E0DFF86C0A407842
:1012800000283AD0DFF8600A407B002856D0DFF80B
:10129000740A807A002806D0DFF8680A807A401E37
:1012A000DFF8601A88720020DFF83C1A48700020CE
:1012B000DFF85C1ADFF84C2A92798854DFF8440A88
:1012C0008079DFF8401A48710020DFF81C1A487353
:1012D000DFF8040A90F82900002804D00120DFF884
:1012E000F819C87704E00120DFF8EC1981F829002B
:1012F0000020DFF8E419087120E00120DFF8FC1974
:1013000081F834000520DFF8F41981F8360072B650
:10131000DFF8D00983B06946D0E90023C1E9002392
:10132000D0E90223C1E902230EBCDFF8C40901F0B1
:10133000B5FF62B6DFF8AC0902F046F80020DFF82E
:10134000A81948700020DFF8981908604FF400765B
:101350000027DFF888893A003100404602F046F85D
:10136000DFF87409807C002809D0DFF86C09407D23
:10137000002804D00020DFF86019487515E201F05C
:1013800060B8DFF8E41CDFF8540903F0A6FE00287B
:1013900000F0A180DFF8D41CDFF8400903F09DFEC7
:1013A000002824D0DFF8C80C03F0F0F80020DFF8A4
:1013B000381948700020DFF830194873DFF8180931
:1013C00090F82900002804D10120DFF80C1981F8D9
:1013D00029000120DFF82C19DFF82829927911441F
:1013E00081F8C4000020DFF8F018087154E0DFF83D
:1013F000841CDFF8E80803F070FE002818D00020F5
:10140000DFF8D41848740020DFF8CC1808710020E9
:10141000DFF8C41888740020DFF8BC1808740020B6
:10142000DFF8E01888640020DFF8D818C86433E0DB
:101430000620DFF8C81881F8360072B6DFF8A40875
:1014400083B06946D0E90023C1E90023D0E9022333
:10145000C1E902230EBCDFF8980801F01FFF62B655
:10146000DFF8800801F0B0FFDFF86C080079002891
:1014700003D00020DFF860180871DFF85C0890F8EE
:101480002700002808D00020DFF84C1881F827003A
:101490000020DFF87018C8660020DFF844180860E4
:1014A0004FF400760027DFF834883A0031004046D8
:1014B00001F09CFFDFF82008807C002809D0DFF8CD
:1014C0001808407D002804D00020DFF80C1848756B
:1014D0006BE100F0B6BFDFF8B41DDFF8000803F0E1
:1014E000FCFD00285FD0DFF8A81DDFF8F00703F04F
:1014F000F4FD0400002C04D00020DFF80818087266
:1015000003E00120DFF8FC1708724FA1DFF8CC07D9
:1015100003F0E3FD0400002C06D00020DFF8E41700
:10152000487205E0203D20000120DFF8D8174872FE
:101530000420DFF8C81781F8360072B6DFF8A40778
:1015400083B06946D0E90023C1E90023D0E9022332
:10155000C1E902230EBCDFF8980701F09FFE62B6D6
:10156000DFF8800701F030FF0020DFF87417086013
:101570004FF400760027DFF864873A0031004046D8
:1015800001F034FFDFF85007807C002809D0DFF835
:101590004807407D002804D00020DFF83C1748753C
:1015A00003E100F04EBFDFF83007807C00282FD029
:1015B000DFF82407407D00282AD0DFF81C07007FD1
:1015C000002825D1DFF83C07406D002811D072B605
:1015D000DFF83007416DDFF8240701F01DFE62B629
:1015E000DFF82007466D00273A003100280001F09F
:1015F000FDFE0120DFF8E01681F828000020DFF86A
:10160000D8164875DFF8D8060068DFF8F8160865C0
:10161000DFF8D4060078002840F0C780DFF8C8065D
:101620004079002800F0C1800020DFF8B41608607F
:101630004FF400760027DFF8A4863A0031004046D8
:1016400001F0D4FEB1E000BF6F757400DFF88806CA
:101650008078002872D0DFF8F01DDFF8800603F0F4
:101660003CFD00284FD1DFF8E41DDFF8700603F0E1
:1016700034FD002847D1DFF8D81DDFF8600603F0FD
:101680002CFD00283FD1DFF8CC1DDFF8500603F019
:1016900024FD002837D1DFF8C01DDFF8400603F035
:1016A0001CFD00282FD1DFF8B41DDFF8300603F051
:1016B00014FD002827D1DFF8A81DDFF8200603F06D
:1016C0000CFD00281FD1DFF89C1DDFF8100603F089
:1016D00004FD002817D1DFF8901DDFF8000603F0A5
:1016E000FCFC00280FD1DFF8841DDFF8F00503F0C3
:1016F000F4FC002807D1DFF8781DDFF8E00503F0DF
:10170000ECFC002851D00120DFF8CC1588750120B1
:10171000DFF8C41508740020DFF8BC1588700520B8
:10172000DFF8E01588650020DFF8AC1581F82700A8
:101730000020DFF8D015C86600F083BEDFF89C05F6
:10174000DFF89C150968084410F8010C092818D125
:10175000DFF88805DFF888150968084410F8020CDE
:101760003A280ED1DFF87405DFF8741509680844CB
:1017700010F8030C312804D10120DFF85C1508763D
:1017800013E0DFF85C050068B0F5FF7F0DD900209D
:10179000DFF84C1508604FF400760027DFF83C8531
:1017A0003A003100404601F021FEDFF82C05007CB4
:1017B000002800F0FD80DFF8200590F828000028C0
:1017C00040F0F680DFF83C05406DDFF8381508651D
:1017D000DFF80C050068DFF82C15096D0818B0F566
:1017E000007F25D3DFF8F8040068DFF81815096DCD
:1017F0000818A0F2FF1672B63100DFF8000501F0FC
:101800000BFD62B60027DFF8D80400684042284488
:1018100000F2FF183A003100404601F0E7FD40F2C7
:10182000FF10DFF8BC140968401ADFF8D814086507
:10183000DFF8D004066DDFF83C7CDFF8A004DFF8A9
:10184000A014096800EB010832003900404602F09C
:1018500061FEDFF88C040068DFF8A814096D081831
:10186000DFF87C140860DFF878040068012805D1EF
:10187000DFF8680400780D2800F0E385DFF8F81B36
:10188000DFF8580403F029FC002808D00020DFF816
:10189000481448750020DFF84014087788E0DFF826
:1018A00048040078002840F08380DFF82C04807D15
:1018B00000287DD1DFF824040078002878D0DFF8F4
:1018C0001C0400780D2873D1DFF8100440780A2832
:1018D0006ED1DFF83004806B022869D00120DFF878
:1018E000F81308777DA1DFF8940B03F0F6FB0400F2
:1018F000002840D0DFF8E403201A861CDFF8801BA4
:10190000DFF8780B03F0E9FB00280ED0DFF8E413D2
:10191000DFF8C803304403F0E0FB0400002C04D0DF
:10192000DFF8B803201A801D0600DFF8B403006852
:10193000801B00281BD072B6DFF8A4030068811B4F
:10194000DFF8B80301F068FC62B6DFF894030068C2
:10195000871B5FF00008DFF8840300EB06094246AE
:101960003900484601F042FDDFF8740306600020AC
:10197000DFF8641308770120DFF85C134875DFF89F
:101980006003006840F2FF11884211D1DFF848037C
:10199000007F00280CD00020DFF83C1308770020DF
:1019A000DFF83413487540F2FF10DFF8581308656C
:1019B000DFF82403407D002840F0FD81DFF81803A4
:1019C000807C002800F0F7810120DFF81C130870EC
:1019D000DFF83003406CDFF82C13096D0818DFF8CE
:1019E00024134864BC4890F82800002803D0002045
:1019F000B94981F82800DFF8801AB848C14A926DC9
:101A00001044401F03F069FB0400002C00F0B98073
:101A1000B248B3490968084410F8020C0D2840F098
:101A2000B080AE48AE490968084410F8010C0A2895
:101A300040F0A780DFF8501AA84803F04EFB0400DE
:101A400000282BD0E07E00280CD0A448261AA448F9
:101A5000006816F11B01471A72B63900A74801F059
:101A6000DBFB62B600209E4908600020A54948645F
:101A70000520A44988654FF400760027DFF85C82D2
:101A80003A003100404601F0B1FC0120964908754A
:101A90000D209C4981F8C30000F0D3BCDFF8CC15C1
:101AA0008E4803F01AFB0400002819D0E07D0028BE
:101AB0000CD08A48261A8A48006816F11701471A7E
:101AC00072B639008D4801F0A7FB62B601208D493E
:101AD0008C4A9279114481F8C40019E00D0A000083
:101AE000DFF8A8197D4803F0F8FA040000280FD0A9
:101AF000E07D00280CD07948261A7948006816F154
:101B00001701471A72B639007C4801F085FB62B6AE
:101B100000207C49486400207A49486300207949C4
:101B2000886305207749886500206B498874002008
:101B30006949087100206849087400206A490861F1
:101B40000020674908600020674908706248407CAF
:101B500000280AD000206049487400206949C86301
:101B600001205D49087001F02FF94FF4007600273D
:101B7000DFF868813A003100404601F037FC00F0A0
:101B800060BC57480068062805D3002C03D1544890
:101B900000685C4988655B48406C5A49896B88429B
:101BA000C0F0BA805748806B5649496C88421BD2B6
:101BB0005448406C5349896B461A72B631004F48FD
:101BC00001F02AFB62B60027444845490968891B91
:101BD00000EB01083A003100404601F007FC4048A4
:101BE0000068801B3E4908603D480068454988649C
:101BF0004448806B4349C86439480668374FDFF86A
:101C0000D88C32003900404602F084FC0020344970
:101C1000086000203B49486400203A49486300209E
:101C200038498863002037490865052035498865AB
:101C30000020294948750020274908742648407C1F
:101C400000281BD000202F49C86300202D49887030
:101C500025480069002804D023480069401E224915
:101C6000086121480069002804D101201A49087040
:101C700001F0AAF800201849C87409E001201649AB
:101C8000C874204840781F49887001201649487060
:101C9000002011498874002013490870FFF70DF8DF
:101CA0000D48407C002809D001200B49887700208E
:101CB0000949087100200849487402E001200649DA
:101CC00048774FF400760027DFF810803A003100A3
:101CD000404601F08BFBB4E3C86200205856002058
:101CE00070630020705E00209462002090B80008AD
:101CF0005C5E002098B80008A0B80008485E00208C
:101D0000FCB70008785B002030EBFFFFB02FFFFF2F
:101D100048630020E95B0020DFF8C00B0068B0F5E5
:101D2000FF7F47D90520DFF8B81B8865DFF8B00BC7
:101D3000806BDFF8AC1BC86440F2FF10DFF8A01B1B
:101D40008864DFF8980B0668DFF8987BDFF8888BEB
:101D500032003900404602F0DDFB0020DFF87C1B3A
:101D600008600520DFF8781B8865FEF7A6FF4FF4B2
:101D700000785FF00009DFF86CAB4A4641465046F8
:101D800001F034FBDFF8600B407C002808D0002015
:101D9000DFF84C1B88700120DFF84C1B887709E0C6
:101DA000DFF83C0B4078DFF8381B88700120DFF843
:101DB000381B487745E3DFF8300B807D002800F0C2
:101DC0005B810120DFF8241B0870DFF8241BDFF89B
:101DD000140BDFF80C2B926D1044401F03F07DF9BB
:101DE0000400002800F08280E079002821D0DFF88C
:101DF000F40A261ADFF8E40A0068B11D471A72B621
:101E00003900DFF8F00A01F007FA62B65FF0000867
:101E1000DFF8D00A304410F107094246390048463D
:101E200001F0E4FADFF8B40A0068C01BDFF8AC1A6E
:101E30000860DFF8A80A0068DFF8A41A8864DFF8F1
:101E40009C0A0668DFF89C7ADFF88C8A3200390039
:101E5000404602F05FFBDFF8840A0068DFF8801A72
:101E600008630120DFF8841A08750020DFF8781A6B
:101E700008740020DFF8701A8875FEF71EFF002036
:101E8000DFF85C1A81F8C3000020DFF8601A0870E0
:101E90000020DFF8541A48750020DFF84C1A08714A
:101EA0000520DFF83C1A8865DFF8300AD0F800809A
:101EB0005FF00009DFF82CAA4A464146504601F07F
:101EC00095FA0020DFF8141A0860DFF81C0AC07DBC
:101ED000002805D00120DFF8101A81F823004CE01B
:101EE0000120DFF8041A81F8220046E05E49DFF89D
:101EF000F409DFF8EC29926D1044401F03F0EDF86F
:101F000000283AD00120DFF8E41908750D20DFF829
:101F1000D01981F8C3000020DFF8D0190870002024
:101F2000DFF8C41908740020DFF8BC1948750020D8
:101F3000DFF8A81908600520DFF8A41988650020DB
:101F4000DFF8A41988754FF400760027DFF894892C
:101F50003A003100404601F049FADFF88C09C07DB3
:101F6000002805D00020DFF8801981F8230004E064
:101F70000020DFF8741981F82200DFF8600900689A
:101F8000062805D3DFF854090068DFF8541988657E
:101F9000DFF84809006840F2FF11884263D1DFF89A
:101FA0003C0900680990DFF83C090890DFF82869CF
:101FB000099A0899300002F0ADFA06200790DFF880
:101FC0008C0C0690DFF8886C079A0699300002F0B6
:101FD000A1FA0620059000200490DFF8706C049AA6
:101FE0000599300001F002FA4FF4007000900026CD
:101FF000DFF8F07832000099380001F0F7F9062791
:10200000DFF84C8CDFF8DC983A004146484602F095
:1020100081FA5FF006095FF0000ADFF834BC52462F
:102020004946584601F0E2F90620DFF8B01808608A
:102030000520DFF8AC18886540F2F910DFF8A01829
:102040000863FEF73AFEDFF8A008C07D002805D03F
:102050000120DFF8941881F8230004E00120DFF864
:10206000881881F82200ECE1A8B8000860B40008E4
:10207000B0B1000830B20008DFF86C08407D0028DD
:1020800040F09681DFF86008007E002800F0908123
:10209000DFF85008DFF844180968084410F8020C0B
:1020A0000D2840F07181DFF83C08DFF8301809682E
:1020B000084410F8010C0A2840F06681DFF8200877
:1020C00090F87000DFF81818C978884280F0F8801E
:1020D000DFF8801BDFF80C0802F0FFFF0400002C83
:1020E00010D0A0798DF80400E0798DF805009DF8F6
:1020F00004000A219DF8052001FB00201038DFF8BC
:10210000581B0870DFF8500B0078DFF8501B096887
:10211000DFF8CC2792F870202C235A438854DFF83C
:10212000401BDFF8C00702F0D8FF0400002C0FD0DE
:10213000E0798DF80400207A8DF805009DF8040000
:102140000A219DF8052001FB0020B0F504700390E2
:10215000DFF8080B0068DFF8881791F870102C2260
:1021600051430844039949424160DFF8F81ADFF807
:10217000740702F0B2FF0400002C28D00720DFF81B
:10218000E81A0870DFF8E00A0078205C27281ED0E3
:10219000DFF8C80A0068DFF8481791F870102C22A1
:1021A00051430844DFF8C01A09780844DFF8B81A28
:1021B0000978615C4170DFF8B00A0078401CDFF8F4
:1021C000A81A0870DFF8A00A00782328DAD1DFF80F
:1021D0009C1ADFF8100702F080FF0400002C0DD0DD
:1021E000DFF8780A0068DFF8F81691F870102C22F2
:1021F00051430844012180F826100CE0DFF85C0A06
:102200000068DFF8DC1691F870102C225143084466
:10221000002180F82610DFF8C81ADFF8C80602F09F
:102220005CFF0400002C0DD0DFF8300A0068DFF8F6
:10223000B01691F870102C2251430844012180F807
:1022400027100CE0DFF8140A0068DFF8941691F804
:1022500070102C2251430844002180F82710DFF829
:102260009C1ADFF8800602F038FF0400002C11D021
:10227000DFF8E8090068DFF8681691F870102C2282
:1022800051430844012180F8281010E0B0B800083C
:10229000B8B80008DFF8C4090068DFF8441691F800
:1022A00070102C2251430844002180F82810DFF8D8
:1022B000300690F87000401CDFF8241681F870009A
:1022C000DFF83C1ADFF81C0602F007FF0400002CC0
:1022D0001FD04FF400760027DFF808863A0031005F
:1022E000404601F083F80020DFF8F0150860012077
:1022F000DFF8F81508750020DFF8EC1508760020E7
:10230000DFF8E41548720D20DFF8D41581F8C3001A
:1023100097E0DFF8F019DFF8CC0502F0DEFE0028C8
:1023200024D00020DFF8C01548720020DFF8B01577
:1023300081F870000020DFF8A41508600120DFF8A4
:10234000AC1508750020DFF8A01508760020DFF82E
:10235000901581F8C3004FF400760027DFF88485DC
:102360003A003100404601F041F86AE00020DFF811
:102370006C1508604FF400760027DFF868853A0096
:102380003100404601F032F8DFF850050068B0F542
:10239000FF7F0DD90020DFF8441508604FF4007668
:1023A0000027DFF840853A003100404601F01EF872
:1023B000DFF83405407D002843D1DFF82C05007D8F
:1023C00000283ED02FA002F0E1F8DFF83C19DFF83A
:1023D000140502F082FE0400002C1ED0DFF8BC09B8
:1023E00002F0D4F80120DFF8041508750020DFF8AA
:1023F000F01481F8C3000020DFF8EC140875002009
:10240000DFF8D81408604FF400760027DFF8D48492
:102410003A003100404600F0E9FFDFF8C0040068F0
:10242000B0F5007F0DD30020DFF8B01408604FF442
:1024300000760027DFF8AC843A003100404600F017
:10244000D5FF0BB0BDE8F08FC0B80008C8B80008D1
:1024500098B50008D0B80008ACB5000854B700081B
:1024600064B7000878B4000868B30008C0B5000875
:1024700090B4000858540020D8B800085A560020DC
:1024800008B800082A00000084B30008A8B40008B7
:102490002DE9FC470400250026004FF0FF08002E20
:1024A00000F01782DFF86C19280002F016FE060013
:1024B000002E00F00E8270798DF80400B0798DF84E
:1024C00005009DF805003A2804D19DF80400303835
:1024D000804608E09DF804000A219DF8052001FBD4
:1024E0000020103880465FFA88F8DFF80804C0F84A
:1024F00028800120DFF8FC1381F836005FFA88F8A5
:1025000040460028032840F2CB81001F012840F2FA
:10251000D681801E012840F2C381801E012840F22E
:10252000CE81801E00F0C381401E012840F2C78189
:10253000801E012840F2B481801E00F0C081401E40
:10254000032840F2AD81001F00F0B981401E00F069
:10255000A781401E012840F2B281C01E00F0A08178
:10256000401E012840F2AB81801E00F05881801E81
:1025700000F09681401E012840F2A181801E0128B2
:1025800040F28E81801E012840F29981801E00F069
:102590008781401E00F09381401E00F08181401E23
:1025A000042840F28C81401F012840F27981001FED
:1025B000052840F27581801F1CD0801E00F05B81D1
:1025C000401E26D0401E00F0F280401E00F0FF802A
:1025D000001F27D0801E00F06381401E00F056814E
:1025E000401E00F05881001F00F02F81801E00F077
:1025F000578165E1DFF88418280002F06EFD0600BF
:1026000070798DF800009DF800003038B9490886CF
:1026100056E1B07D8DF800009DF800003038B549D6
:1026200008864DE1B048407E002804D0DFF850080D
:1026300001F0ACFF4DE1AC48807E002803D00020C3
:10264000A749C86205E00120A74908710120A649F1
:102650008876DFF82818280002F03FFD0600002EDB
:1026600000F0A48070798DF800009DF800003038EB
:10267000A04981F83200307A8DF80000707A8DF828
:102680000100B07A8DF80200F07A8DF803009DF811
:1026900000003A2806D1F0798DF80000307A8DF8E4
:1026A00001002EE09DF801003A2809D1F0798DF85B
:1026B0000000307A8DF80100707A8DF8020020E079
:1026C0009DF802003A280CD1F0798DF80000307A9C
:1026D0008DF80100707A8DF80200B07A8DF8030051
:1026E0000FE09DF803003A280BD1F0798DF8000037
:1026F000307A8DF80100707A8DF80200B07A8DF88A
:1027000003009DF801003A2805D19DF800003038FB
:10271000734908643EE09DF802003A280BD19DF809
:1027200000000A219DF8012001FB0020B0F5047093
:102730006B4908642EE09DF803003A2812D19DF8F9
:10274000000064219DF801200A235A4301FB002068
:102750009DF8021050FA81F0DFF8CC170818604994
:10276000086417E09DF800004FF47A719DF801208D
:1027700064235A4301FB00209DF802100A2202FB49
:1027800001009DF8031050FA81F0DFF8A017081837
:10279000534908645248006C5649C862534800695E
:1027A000401C5249086100204D49086488E001201E
:1027B0004E49887100204D49487100204B490861FD
:1027C00000204949487001204749487678E00020B8
:1027D00046498871012045494871002042494870A6
:1027E00001204149487640480078012805D13F48FA
:1027F0008079002801D100F0E7FA3B48407C0128AD
:102800000CD105203649886501203749087401201C
:10281000354988743248C06B3149886350E0DFF82D
:102820004017280002F059FC060011200700222F53
:1028300006DAF05D2A49394481F8A1007F1CF6E7E9
:1028400001202A4981F823003AE0DFF81817280010
:1028500002F043FC060011200700222F06DAF05D8B
:102860001F49394481F8A1007F1CF6E701201F4968
:1028700081F8240024E00020DFF8EC160870002026
:102880001949487001201849487619E0072019496C
:1028900081F8360014E00820164981F836000FE070
:1028A00000201149487001200F49487608E00E4881
:1028B0000079002802D000200B49087100E0FFE7F2
:1028C0004FF400795FF0000A52464946280000F0B4
:1028D0008DFDBDE8F3870000585200207063002092
:1028E000785B002058560020C862002094620020C7
:1028F00098B80008485E002010B50400206804283D
:1029000058D005285BD008285ED0092861D00A2855
:1029100064D00B2867D00C286AD00F286DD01428FB
:1029200071D0162875D0172879D018287DD01A288C
:1029300000F081801B2800F084801F2800F0868032
:10294000202800F08980232800F0A980242800F0A6
:10295000AB80262800F0AE80282800F0BA80292815
:1029600000F0BD802A2800F0C4802B2800F0C7802A
:102970002C2800F0CA80372800F0CD803A2800F0DB
:10298000EC803D2800F02A813E2800F030813F286D
:1029900000F03A81402800F0EA80432800F03A81B4
:1029A000442800F03C81452800F04381462800F08F
:1029B00045814AE10120DFF8B415C87745E10120DF
:1029C000DFF8A815087640E10120DFF8A015487669
:1029D0003BE10120DFF89415887636E10120DFF82D
:1029E0008C15C87631E10120DFF8801508772CE1DD
:1029F0000120DFF87815887727E10120DFF86C15D2
:102A000081F8200021E10120DFF8601581F829001C
:102A10001BE10120DFF8541581F82A0015E101209F
:102A2000DFF8481581F82B000FE10120DFF83C1595
:102A300081F8210009E10120DFF8301581F822003A
:102A400003E10120DFF824154877FEE00120DFF8DC
:102A50001C1581F82500F8E0DFF81005007B401C0C
:102A6000DFF8081508730120DFF800150871012050
:102A7000DFF8F81481F82600DFF8F40480790128E3
:102A80000CD10020DFF8E81488710020DFF8E01492
:102A900008720120DFF8D81481F82100D5E0002069
:102AA000DFF8CC144872D0E00120DFF8C01481F8C0
:102AB0002E00CAE00020DFF8B41408710020DFF80F
:102AC000AC1481F826000120DFF8A01481F827005B
:102AD000BBE00120DFF8941481F82800B5E0002065
:102AE000DFF8841408700120DFF8801481F82D00CD
:102AF000ABE00120DFF8741481F82F00A5E001207D
:102B0000DFF8681481F830009FE00120DFF85C14E2
:102B100081F8310099E0DFF85804807C012807D162
:102B20000020DFF84C1488740020DFF84414087487
:102B30002089DFF840144870DFF83C04DFF83414D3
:102B40004978405C002807D00120DFF82414C874BD
:102B50000120DFF81C14087177E02089DFF81414D5
:102B6000C8710120DFF8081481F820006DE060686A
:102B7000DFF80014C8630120DFF8F4134874012063
:102B8000DFF8EC130871DFF8E4034079002812D174
:102B9000A07A012806D10020DFF8D413087000F0D5
:102BA00026F91AE00020DFF8C81348740020DFF887
:102BB000C013087111E00120DFF8B4130874052078
:102BC000DFF8B01388650120DFF8A4138874DFF8FC
:102BD000A403C06BDFF89C13886336E00120DFF8A4
:102BE000901348730120DFF8941308702DE0012042
:102BF000DFF87C1388730020DFF88413087000204E
:102C0000DFF87813087020E00120DFF8601381F806
:102C100032001AE00120DFF85813087215E0002096
:102C2000DFF84C1308720120DFF8441381F821000B
:102C30000BE00120DFF83813C87106E00020DFF850
:102C40003013C87100F0ACF8FFE710BD51540020FC
:102C500050630020E0B80008B56300206C630020DA
:102C6000E8B80008F0B80008B4630020F8B800081D
:102C700010B582B0040000F021F80D20DFF8041335
:102C800081F83600E4B2DFF8FC02048672B6DFF8A1
:102C9000F80283B06946D0E90023C1E90023D0E9F6
:102CA0000223C1E902230EBCDFF8E00200F0F6FACD
:102CB00062B6DFF8D40200F087FB13BDDFF8AC0288
:102CC0000078012809D0DFF8A4024078012806D155
:102CD000DFF89802407B012801D000BFEEE7704783
:102CE00000B9000870B54FF400640025DFF8A06259
:102CF0002A002100300000F079FB70BD08B90008FF
:102D0000A8B8000810B9000814B8000880B5002061
:102D100002F0ECF9FDF745FB01BD10B50400DFF84A
:102D20004C020079002801D1052034E0DFF8400290
:102D3000007A012804D0DFF83802C079012801D1D7
:102D4000102028E00120DFF82812C872A4B2002C5D
:102D500005D1DFF8440201F019FC1F201BE04FF4FD
:102D60007A73220092B2DFF82812DFF8300200F006
:102D7000DBFF002803D0FFF7C9FF0F200BE0002086
:102D8000DFF8EC11C872DFF8E801007B002801D100
:102D9000FDF707FB002010BD00000000D4B50008BF
:102DA0000120DFF8CC1181F825000020DFF8C411E4
:102DB000486670470020DFF8B81181F82500002030
:102DC000DFF8B0114866704710B50024FFF78AFF9E
:102DD000DFF8CC11DFF8B80101F066FBDFF8B001D5
:102DE00001F07CFB80B2FFF798FF040010BD10B526
:102DF0000024FFF777FFDFF8AC11DFF8940101F052
:102E000053FBDFF88C0101F069FB80B2FFF785FF0F
:102E1000040010BD90B800082DE9F0410400002521
:102E2000FFF760FFE4B222005F49594801F03CFB24
:102E300000204E4981F82600554801F04FFB80B232
:102E4000FFF76BFF0500EDB2002D02D02800C0B2E5
:102E500011E01B260027DFF854813A00310040467C
:102E600000F0C4FA414890F82600012801D000BFC4
:102E7000F8E72800C0B2BDE8F081000018B90008EA
:102E800020B9000870B504000D000026FFF72AFFE6
:102E90002B00220046493E4801F006FB3C4801F069
:102EA0001DFB80B2FFF739FF0600F6B2002E02D1FB
:102EB000FDF7C2FF06003000C0B270BD70B504005F
:102EC0000D000026FFF70EFF2B0022003949304885
:102ED00001F0EAFA2E4801F001FB80B2FFF71DFF76
:102EE0000600F6B2002E02D1FDF7A6FF0600300064
:102EF000C0B270BD38B504000025FFF7F3FE220014
:102F00002449234801F0D0FA214801F0E7FA80B2C1
:102F1000FFF703FF0500EDB2002D02D1FDF78CFF96
:102F200005002800C0B232BD30EBFFFFB02FFFFF1D
:102F300010B50024FFF7D6FE1F49154801F0B4FA7A
:102F4000134801F0CBFA80B2FFF7E7FE0400E4B2C9
:102F5000002C02D1FDF770FF04002000C0B210BDAC
:102F600020B800082CB80008B1630020946200204B
:102F7000C8620020785B002048630020B263002014
:102F8000B3630020485E0020705E00205C5E00207D
:102F9000C02B0020E8B50008D8B200087C5F0020F4
:102FA00028B9000830B9000838B80008AC62002021
:102FB000FCB5000810B6000838B900087047026870
:102FC000531C036011707047816000220260002270
:102FD000C260002242608C4A0261704701008A6828
:102FE000C868B2F16403984201DB012000E00020D0
:102FF00070470100C868652801DA012000E0002060
:10300000704701008A68C868904201D1012000E041
:10301000002070470100C868002801D1012000E0AD
:10302000002070472DE9F04104000D002000FFF75B
:10303000E8FF002816D1E068401CE06060680127C6
:10304000216901EB00083A002900404601F062FACC
:103050006068401C6060A06806006068B04201DBE8
:1030600000206060BDE8F0812DE9F04F83B00400DE
:10307000664805002000FFF7CDFF002801D00020A2
:10308000BEE04FF400760027DFF880813A0031007F
:10309000404600F0ABF95E48007C002800F09480C8
:1030A000D4F804B0E068B0F5007F30DAE068594940
:1030B0004865206883450BDB206856494E6D2169C1
:1030C00001EB000732003900280001F023FA19E073
:1030D00026682068D6F58067216901EB00083A0070
:1030E0004146280001F016FA2068D4F810904042BA
:1030F00028444FF4806100EB010A5A464946504685
:1031000001F008FA606820600020E06077E0206845
:10311000834513DB206840F2FF16216901EB0007AD
:1031200032003900280001F0F5F9206800F2FF10A4
:1031300020602068BBEB0000E06040E0206800F207
:10314000FF10B0F5806F15DA206840F2FF16216994
:1031500001EB000732003900280001F0DBF920689C
:1031600000F2FF1020602068D0F580601BEB0000AB
:10317000E06024E026682068D6F58061019121692D
:1031800001EB0007019A3900280001F0C3F920681B
:10319000A6F20128D4F81090404228444FF48061F0
:1031A00000EB010A42464946504601F0B3F9206857
:1031B000A0F2012020602068BBEB0000E06040F23C
:1031C000FF10144948651AE020680126216901EBC7
:1031D000000732003900280001F09CF92068401CEB
:1031E0002060E068401EE06001200A494865A06850
:1031F000009020680099884201DB002020602800B0
:10320000BDE8FE8F00000000384300205854002025
:10321000C8620020785B002010B4426803685B1A23
:10322000002B0FD403685B1A03600368934203DA30
:103230000368D31AC3600FE00368D3F58063D31823
:10324000C36009E00368D1F58064E3180360036894
:10325000D3F58063D318C36010BC704710231A00E5
:1032600001FB02F38360002303600023C36000239B
:103270004360534B0361704701008A68C868B0EB34
:10328000121F01D1012000E0002070470100C86832
:10329000002801D1012000E0002070470EB478B56D
:1032A00004002000FFF7E8FF00283CD16068000917
:1032B0000600206931010844069941602069310106
:1032C00008449DF81E1081722069310108449DF860
:1032D0001F10C1722069310108449DF8201001734C
:1032E000206931010844BDF81C100181059821694D
:1032F000320188502069310108449DF82210817301
:103300002069310108449DF821104173E068401C98
:10331000E060606810306060A06805006068A842E6
:1033200001DB0020606071BC5DF810FB70B504002B
:103330002000FFF7ABFF002801D000203FE020680D
:103340000009060020693101084440681D494860B1
:10335000206931010844C07A1A49C87220693101D4
:103360000844007B1749087320693101084400892B
:1033700014490881206931010844807A1149887212
:103380002069310140580F49086020693101084423
:10339000807B0C498873206931010844407B0949CE
:1033A0004873206810302060E068401EE060A0682C
:1033B00005002068A84201DB00202060014870BDA4
:1033C0003847002030630020002141600021C17295
:1033D000002181730021017309210181092181727A
:1033E00063210160012141737047200062F30F22C5
:1033F00062F31F42401810F0030308D0C91A1FD30C
:10340000DB0748BF00F8012D28BF20F8022D13006C
:1034100030B414461546103928BF20E93C00FAD8CC
:10342000490728BF20E90C0048BF40F8042D890057
:1034300028BF20F8022D48BF00F8012D30BC70478E
:10344000C91818BF00F8012DCB0728BF00F8012DBF
:103450007047000010B50400002C01D1012014E0D9
:1034600094F83900002805D1002084F838002000A5
:1034700001F0DAFE022084F83900211D206800F0F6
:103480009BF9012084F83900002010BD10B504001C
:10349000022084F839002068006A41F211110842C4
:1034A0000BD12068006A40F24441084205D12068EF
:1034B00000684008400021680860200001F058FFC3
:1034C000002084F83900002084F83800002010BD66
:1034D00001000868C06850F001000A68D060086800
:1034E000006850F001000A68106000207047010079
:1034F0000868C068400840000A68D0600868006A30
:1035000041F2111210420BD10868006A40F24442A5
:10351000104205D108680068400840000A68106041
:103520000020704710B504002068006980071AD594
:103530002068C068800716D57FF002002168086106
:10354000012020762068806910F0030F03D020004E
:1035500001F00FFF05E0200001F00CFF200001F05A
:103560000AFF002020762068006940071AD52068ED
:10357000C068400716D57FF004002168086102206A
:1035800020762068806910F4407F03D0200001F08D
:10359000F0FE05E0200001F0EDFE200001F0EBFE62
:1035A000002020762068006900071AD52068C068CE
:1035B000000716D57FF008002168086104202076F6
:1035C0002068C06910F0030F03D0200001F0D1FE85
:1035D00005E0200001F0CEFE200001F0CCFE00202E
:1035E000207620680069C0061AD52068C068C00629
:1035F00016D57FF010002168086108202076206829
:10360000C06910F4407F03D0200001F0B2FE05E055
:10361000200001F0AFFE200001F0ADFE002020767A
:1036200020680069C0070AD52068C068C00706D5B1
:103630007FF0010021680861200001F01AFF206876
:10364000006900060AD52068C068000606D57FF02C
:10365000800021680861200001F08EFF2068006969
:1036600040060AD52068C068400606D57FF04000B5
:1036700021680861200001F080FF20680069800651
:103680000AD52068C068800606D57FF02000216832
:103690000861200001F072FF10BD70B504000D003C
:1036A000002694F83800012801D1022083E001208F
:1036B00084F83800022084F8390020688068060009
:1036C00036F0770636F47F46206886602868002842
:1036D00056D0102859D020285CD030285FD0402800
:1036E00044D050282ED0602836D070280DD0B0F5A8
:1036F000805F03D0B0F5005F17D055E02068806888
:10370000C008C000216888604EE0EB686A68A9685C
:10371000206800F0E5F820688068060036F077063B
:1037200056F07706206886603EE0EB686A68A96814
:10373000206800F0D5F82068806850F48040216847
:10374000886031E0EA686968206800F091F85021EB
:10375000206800F0BAF827E0EA686968206800F09D
:103760009DF86021206800F0B0F81DE0EA68696803
:10377000206800F07DF84021206800F0A6F813E0F2
:103780000021206800F0A1F80EE01021206800F070
:103790009CF809E02021206800F097F804E030212F
:1037A000206800F092F8FFE7012084F8390000203B
:1037B00084F83800002070BD002203681A00DFF88A
:1037C000943098420CD0B0F1804F09D0DFF88830A7
:1037D000984205D0214B984202D0214B984201D10A
:1037E000012300E00023DBB2002B03D032F0700293
:1037F0004B681A43174B984214D0B0F1804F11D048
:10380000154B98420ED0154B98420BD0144B984252
:1038100008D0144B984205D0134B984202D0134B5A
:10382000984201D1012300E00023DBB2002B03D03A
:1038300032F44072CB681A4302608B68C3620B6833
:103840008362044B984201D10B69036301234361F6
:1038500070470000000001400004004000080040E4
:10386000000C00400040014000440140004801407D
:1038700030B400230024056A2C00056A6D086D0031
:10388000056285692B0033F0F00353EA021334F02C
:103890000A040C438361046230BC704730B40023D7
:1038A0000024056A35F01005056285692B00056A5C
:1038B0002C0033F4704353EA023334F0A00454EA8A
:1038C00001148361046230BC7047002283681A00CF
:1038D00032F0700289B251F007031A4382607047D8
:1038E00030B4002485682C0034F47F4452EA01058A
:1038F00055EA03252C43846030BC7047F8B400239C
:103900000024002500263200102A80F0D8800126ED
:10391000964033000E681E4034009C4240F0CD803B
:103920004E68022E02D04E68122E16D1D60800EB39
:103930008606366A35000F2612F00707FFB2BF0071
:10394000BE40B5430E6912F00707FFB2BF00BE408C
:103950003543D60800EB8606356206683500032637
:103960001700FFB27F00BE40B5430E7916F0030684
:103970001700FFB27F00BE40354305604E68012E40
:1039800008D04E68022E05D04E68112E02D04E6827
:10399000122E19D18668350003261700FFB27F006A
:1039A000BE40B543CE681700FFB27F00BE4035432E
:1039B00085604668350001269640B5434E68C6F3DB
:1039C0000016964035434560C6683500032617004B
:1039D000FFB27F00BE40B5438E681700FFB27F0084
:1039E000BE403543C5604E68F60066D50026009699
:1039F000904E366856F480468E4F3E608D4E366847
:103A000016F480460096009E8B4E970856F8276065
:103A100035000F2612F00307FFB2BF00BE40B543CA
:103A2000864EB04201D1002614E0854EB04201D14D
:103A300001260FE0834EB04201D102260AE0824EF9
:103A4000B04201D1032605E0804EB04201D10426E8
:103A500000E00726F6B212F00307FFB2BF00BE4037
:103A60003543754E970846F82750794E366835002D
:103A7000A5434E68F60300D52543754E3560754E57
:103A800036683500A5434E68B60300D52543714E10
:103A90003560714E36683500A5434E68F60200D594
:103AA00025436D4E35606D4E36683500A5434E6832
:103AB000B60200D52543694E3560521C24E7F1BC9F
:103AC0007047F0B500220023002400263500102D99
:103AD00080F098800126AE40320012EA01063300E1
:103AE000934240F08D8006680327AC465FFA8CFC59
:103AF0005FEA4C0C17FA0CF7BE430660EE0800EBC9
:103B00008606EF0800EB87073F6A5FF00F0C15F0A1
:103B1000070E5FFA8EFE5FEA8E0E1CFA0EFC37EA85
:103B20000C07376286680327AC465FFA8CFC5FEAB5
:103B30004C0C17FA0CF7BE43866046680127AF406D
:103B4000BE434660C6680327AC465FFA8CFC5FEA5A
:103B50004C0C17FA0CF7BE43C660374EAF0856F848
:103B6000276034000F2615F00307FFB2BF00BE40E8
:103B70003440324EB04201D1002614E0304EB04203
:103B800001D101260FE02F4EB04201D102260AE0FA
:103B90002D4EB04201D1032605E02C4EB04201D19A
:103BA000042600E00726F6B215F00307FFB2BF00B7
:103BB000BE40B44224D10F2615F00307FFB2BF0068
:103BC000BE4034001C4EAF0856F82760A6431A4F7B
:103BD0005FEA950C47F82C601D4E36689E431C4FDB
:103BE0003E601C4E36689E431A4F3E601A4E366841
:103BF0009E43194F3E60194E36689E43174F3E60F4
:103C00006D1C64E7F0BD0200136989B20B4202D05B
:103C10000123180001E000231800C0B27047D2B29F
:103C2000002A02D089B2816102E089B20B0483616B
:103C3000704700004438024008380140000002404C
:103C40000004024000080240000C02400010024044
:103C5000003C0140043C0140083C01400C3C014058
:103C600031B501F08DFC0400009D15F1010F00D06D
:103C70006D1C01F085FC001BA842FAD331BD000089
:103C800010B50400002C01D1012033E0A069002808
:103C9000FFD194F83900002805D1002084F83800BD
:103CA000200001F037FA242084F839002068C06829
:103CB00030F400502168C860200000F065FA2068E8
:103CC000006930F49040216808612068406930F054
:103CD0002A00216848612068C06850F400502168BB
:103CE000C8600020E063202084F83900202084F898
:103CF0003A00002010BD10B50400002C01D10120B5
:103D000011E0242084F83900200001F06EFA002030
:103D1000E063002084F83900002084F83A00002095
:103D200084F83800002010BD2DE9F84304000D0090
:103D300016001F005FF0000994F8390020285FD1B9
:103D4000002D02D0B6B2002E01D1012059E094F826
:103D50003800012801D1022053E0012084F8380006
:103D60000020E063212084F8390001F009FC81463D
:103D7000A684E684E08C00282FD0E08C401EE084EE
:103D8000A068B0F5805F18D100974B4600228021D3
:103D9000200000F00DF9002801D0032031E0A846F2
:103DA000B8F80000C005C00D2168486020690028EF
:103DB00001D1AD1CDEE76D1CDCE700974B4600220D
:103DC0008021200000F0F4F8002801D0032018E042
:103DD0002878216848606D1CCCE700974B4600228C
:103DE0004021200000F0E4F8002801D0032008E082
:103DF000202084F83900002084F83800002000E0FA
:103E00000220BDE8F28310B4030093F83A002028A2
:103E100028D1002902D092B2002A01D1012022E04B
:103E200093F83800012801D102201CE0012083F81A
:103E3000380099629A85DA850020D863222083F8B9
:103E40003A00002083F838001868406950F00100FB
:103E50001C6860611868C06850F490701C68E0606D
:103E6000002000E0022010BC70472DE9F843040058
:103E7000206805682068C668206847695FF0000808
:103E80005FF0000915F00F008046B8F1000F07D170
:103E9000A80605D5B00603D5200000F024F985E07A
:103EA000B8F1000F72D0F80702D416F4907F6DD0ED
:103EB00015F00100C0B2002805D0F00503D5E06B75
:103EC00050F00100E063680708D517F00100C0B2A8
:103ED000002803D0E06B50F00200E063A80708D58B
:103EE00017F00100C0B2002803D0E06B50F00400CE
:103EF000E063280708D517F00100C0B2002803D0FE
:103F0000E06B50F00800E063E06B00283DD0A806AD
:103F100004D5B00602D5200000F0E5F8206840691D
:103F2000800910F001008146E06B000702D4B9F16E
:103F3000000F25D0200000F073F82068406940068B
:103F40001AD52068406930F0400021684861606BF4
:103F500000280DD00FF2E900616B0865606B01F07D
:103F600015FB002811D0606B616B096D88470CE070
:103F7000200001F0CAFA08E0200001F0C6FA04E0CF
:103F8000200001F0C2FA0020E0630FE0280605D50A
:103F9000300603D5200000F05FF807E0680605D57D
:103FA000700603D5200000F08EF8FFE7BDE8F1832E
:103FB0002DE9F04104000D0016001F00DDF8188007
:103FC000206800682840A84201D1012000E00020BC
:103FD000F6B2B04221D118F1010FF1D0B8F1000FC3
:103FE00004D001F0CDFAC01B8045E9D22068C0683A
:103FF00030F4D0702168C8602068406940084000F3
:1040000021684861202084F83900202084F83A0093
:10401000002084F83800032000E00020BDE8F08193
:104020000168C96831F490710268D160016849691A
:104030004908490002685161202180F83A10704710
:1040400038B50400A56B0020E8850020E88428002E
:1040500001F05BFA31BD0000010091F83900212820
:104060002FD18868B0F5805F11D1086A02001088EE
:10407000C005C00D0B6858600869002803D1086AA4
:10408000801C086209E0086A401C086205E0086AB2
:10409000431C0B6200780B685860C88C401EC884B3
:1040A00080B200280BD10868C06830F080000B682F
:1040B000D8600868C06850F040000B68D8600020E5
:1040C00000E00220704710B504002068C06830F09E
:1040D00040002168C860202084F83900200001F0E9
:1040E0000EFA002010BD38B5040094F83A002228DA
:1040F00048D1A068B0F5805F16D1A06A050020699C
:10410000002808D120684068C005C00D2880A06A3A
:10411000801CA0621AE02068406800F0FF00288040
:10412000A06A401CA06211E02069002806D1A06AA4
:10413000411CA16221684968017007E0A06A411C26
:10414000A1622168496811F07F010170E08D401E75
:10415000E08580B2002813D12068C06830F49070E8
:104160002168C860206840694008400021684861B3
:10417000202084F83A00200001F0BBF9002002E082
:10418000002000E0022032BD2DE9F84304000025A4
:1041900020680069050035F44055E0680543206853
:1041A00005612068C0680500BC480540A068216919
:1041B000084361690843E169084305432068C56015
:1041C00020684069050035F44075A0690543206802
:1041D0004561E069B0F5004F40F0B0802068B0491B
:1041E000884203D02068AF49884253D101F0BDFA1C
:1041F000814601F0BAFA804601F0B7FA070001F0F3
:10420000B4FA060001F0B1FA192101FB09F1626864
:104210005200B1FBF2F16422B1FBF2F1192202FB70
:1042200008F263685B00B2FBF3F2192303FB07F3A8
:1042300067687F00B3FBF7F36427B3FBF7F36427EA
:1042400007FB1322D20032326423B2FBF3F2520096
:1042500012F4F87212EB0111192202FB06F26368E4
:104260005B00B2FBF3F21923584363685B00B0FBB9
:10427000F3F06423B0FBF3F0642303FB1020C000D1
:1042800032306422B0FBF2F010F0070040182168D1
:10429000886000E101F059FA814601F056FA804643
:1042A00001F053FA070001F050FA060001F04DFA50
:1042B000192101FB09F162685200B1FBF2F164229D
:1042C000B1FBF2F1192202FB08F263685B00B2FB5A
:1042D000F3F2192303FB07F367687F00B3FBF7F3DF
:1042E0006427B3FBF7F3642707FB1322D2003232B3
:1042F0006423B2FBF3F2520012F4F87212EB0111D4
:10430000192202FB06F263685B00B2FBF3F2192389
:10431000584363685B00B0FBF3F06423B0FBF3F039
:10432000642303FB1020C00032306422B0FBF2F0A3
:1043300010F00700401821688860ACE020685849F8
:10434000884203D020685749884252D101F00DFAC3
:10435000814601F00AFA804601F007FA070001F0F1
:1043600004FA060001F001FA192101FB09F1626863
:104370009200B1FBF2F16422B1FBF2F1192202FBCF
:1043800008F263689B00B2FBF3F2192303FB07F307
:104390006768BF00B3FBF7F36427B3FBF7F3642749
:1043A00007FB1322120132326423B2FBF3F212F044
:1043B000F00212EB0111192202FB06F263689B0066
:1043C000B2FBF3F21923584363689B00B0FBF3F090
:1043D0006423B0FBF3F0642303FB102000013230B0
:1043E0006422B0FBF2F010F00F00401821688860E2
:1043F00051E001F0AAF9814601F0A7F9804601F0E9
:10440000A4F9070001F0A1F9060001F09EF91921B5
:1044100001FB09F162689200B1FBF2F16422B1FB89
:10442000F2F1192202FB08F263689B00B2FBF3F27F
:10443000192303FB07F36768BF00B3FBF7F3642797
:10444000B3FBF7F3642707FB132212013232642314
:10445000B2FBF3F212F0F00212EB0111192202FB8F
:1044600006F263689B00B2FBF3F2192358436368BA
:104470009B00B0FBF3F06423B0FBF3F0642303FB79
:104480001020000132306422B0FBF2F010F00F0077
:10449000401821688860BDE8F1830000F369FFFFE0
:1044A00000100140001401400CB41CB5044604A8DF
:1044B00001900A46009401AB6946074878441830D9
:1044C00001F0CCF9009A0021117000285CBF00981F
:1044D000001B16BC5DF80CFBE7EAFFFF00F10103CF
:1044E000810704D010F8011B89B18107FAD1026855
:1044F000B2F10131914311F0803F04BF50F8042F15
:10450000F6E710F8011B11B110F8011BFBE7C01A08
:104510007047000062B38B0708D0521E11F8013BB0
:1045200000F8013B00F024808B07F6D1830740F0B0
:10453000208000BF103A07D330B4B1E83810103AE9
:10454000A0E83810F9D230BC530724BFB1E80810F6
:10455000A0E8081044BF51F8043B40F8043BD207E0
:1045600024BF31F8022B20F8022B44BF0B780370D4
:104570007047083A07D3B1E80810083A40F8043BFE
:1045800040F804CBF7D25307E4E700000EB400B5BF
:1045900082B003A9009102466B460121034878448A
:1045A0000A3001F05BF906BC5DF810FB156F0000E6
:1045B00070B504000026FBF7EDFD012000F08CFB38
:1045C000FBF77FFE0021DFF83006FEF777FC0600E0
:1045D000F6B2002E02D03000C0B221E2FEF782FB1C
:1045E000DFF81816DFF8C406FFF75EFFDFF8BC0639
:1045F000FFF774FF80B2FEF790FB0600F6B2002EC4
:1046000008D1FCF719FC0600F6B2002E02D03000EB
:10461000C0B205E20121DFF8E805FEF74FFC060015
:10462000F6B2002E02D03000C0B2F9E1206B0028B3
:104630000BD0216BDFF8CC05FEF740FC0600F6B28C
:10464000002E02D03000C0B2EAE10021DFF8B80548
:10465000FEF734FC0600F6B2002E02D03000C0B2E5
:10466000DEE12078002802D001281AD033E00021B2
:10467000DFF82006FEF722FC0600F6B2002E02D07C
:104680003000C0B2CCE1DFF81016DFF81006FEF7FC
:10469000F9FB0600F6B2002E02D03000C0B2BFE136
:1046A00019E00121DFF8EC05FEF708FC0600F6B280
:1046B000002E02D03000C0B2B2E1DFF8E415DFF81E
:1046C000DC05FEF7DFFB0600F6B2002E02D030005C
:1046D000C0B2A5E1FFE76078002803D0022857D0D8
:1046E00019D392E00021DFF8BC05FEF7E7FB0600D6
:1046F000F6B2002E02D03000C0B291E10021DFF806
:10470000A805FEF7DBFB0600F6B2002E02D0300053
:10471000C0B285E179E00121DFF88805FEF7CEFB24
:104720000600F6B2002E02D03000C0B278E10B21B4
:10473000DFF87C05FEF7C2FB0600F6B2002E02D0C1
:104740003000C0B26CE10021DFF86805FEF7B6FB6F
:104750000600F6B2002E02D03000C0B260E10021A7
:10476000DFF85405FEF7AAFB0600F6B2002E02D0D1
:104770003000C0B254E10021DFF82C05FEF79EFBAB
:104780000600F6B2002E02D03000C0B248E13CE094
:104790000121DFF81005FEF791FB0600F6B2002EAE
:1047A00002D03000C0B23BE10C21DFF80405FEF777
:1047B00085FB0600F6B2002E02D03000C0B22FE119
:1047C0000A21DFF8F004FEF779FB0600F6B2002EAE
:1047D00002D03000C0B223E10121DFF8DC04FEF793
:1047E0006DFB0600F6B2002E02D03000C0B217E119
:1047F0000121DFF8B404FEF761FB0600F6B2002EDB
:1048000002D03000C0B20BE1FFE7A07800280328F7
:1048100012D8A078062110FB01F00500EDB22900A6
:10482000DFF89804FEF74AFB0600F6B2002E02D02D
:104830003000C0B2F4E0FFE7E078002802280CD88E
:10484000E178DFF87C04FEF739FB0600F6B2002EB3
:1048500002D03000C0B2E3E0FFE7606800280BD070
:104860006168DFF86004FEF70DFB0600F6B2002E6B
:1048700002D03000C0B2D3E0A06800280BD0A168FD
:10488000DFF84404FEF7FEFA0600F6B2002E02D06E
:104890003000C0B2C4E0E06800280BD0E168DFF867
:1048A0002C04FEF7EFFA0600F6B2002E02D030001C
:1048B000C0B2B5E0206900280BD02169DFF81004F0
:1048C000FEF7E0FA0600F6B2002E02D03000C0B2C9
:1048D000A6E0606900280BD06169DFF8F803FEF7F5
:1048E000D1FA0600F6B2002E02D03000C0B297E036
:1048F000E06900280BD0E169DFF84804FEF7C2FA4E
:104900000600F6B2002E02D03000C0B288E0206A65
:1049100000280BD0216ADFF83004FEF7B3FA060056
:10492000F6B2002E02D03000C0B279E0606A0028F2
:104930000FD0606A4FF47A7101FB00F1DFF80C04CC
:10494000FEF7BCFA0600F6B2002E02D03000C0B26C
:1049500066E0A06A00280BD0A16ADFF8F403FEF736
:10496000ADFA0600F6B2002E02D03000C0B257E019
:1049700094F82C0000280CD094F82C10DFF8D40305
:10498000FEF79CFA0600F6B2002E02D03000C0B24C
:1049900046E0FEF7A7F9DFF8C013DFF81003FFF7D2
:1049A00083FDDFF80803FFF799FD80B2FEF7B5F944
:1049B0000600F6B2002E08D1FCF73EFA0600F6B269
:1049C000002E02D03000C0B22AE0FEF78BF9DFF8EB
:1049D0008C13DFF8D802FFF767FDDFF8D002FFF78E
:1049E0007DFD80B2FEF799F90600F6B2002E08D1DF
:1049F000FCF722FA0600F6B2002E02D03000C0B258
:104A00000EE0206B002804D0206B01F02BFBFBF79D
:104A1000C8FCFBF756FC002000F05EF93000C0B285
:104A200070BD38B50400002500F0DDF8A4B2230005
:104A3000DFF82C034278DFF83413DFF87002FFF759
:104A400033FDDFF86802FFF749FD80B2FEF765F934
:104A50000500EDB2002D18D1DFF81403007900280D
:104A600003D10120DFF808130871A4B2DFF8F002C7
:104A700084630120DFF8F81288740520DFF8E01263
:104A800088650120DFF8E81208742800C0B232BD42
:104A900010B50024FEF726F900F0A5F8DFF8C802EB
:104AA000DFF8BC124978405C002819D0DFF8C0025A
:104AB0000079002803D10120DFF8B4120871DFF873
:104AC000A0024278DFF8AC12DFF89802FFF7ECFCA6
:104AD000DFF89002FFF702FD80B2FEF71EF9040036
:104AE00010BD70B504000D000026FEF7FBF82B008A
:104AF0002200DFF88412DFF86C02FFF7D5FCDFF844
:104B00006402FFF7EBFC80B2FEF707F90600F6B28D
:104B1000002E02D1FCF790F906003000C0B270BD43
:104B200070B504000D000026DFF850020078002860
:104B300001D1052056E072B60120DFF83412C876A4
:104B40000120DFF82C12487662B6DFF834020078D4
:104B5000002804D1DFF828020069002801D000BF36
:104B6000F3E700F040F80020DFF804120870DFF8E7
:104B700010024079002808D1FEF739F9DFF8000269
:104B80004079002801D100BFF8E74FF47A73220082
:104B900092B22900DFF8EC01FFF7C6F8002803D035
:104BA000FEF7B4F80F201DE0DFF8D401807900286B
:104BB00008D1FEF709F9DFF8C8018079002801D192
:104BC00000BFF8E70120DFF8A811087072B60020D6
:104BD000DFF89C1148760020DFF89411C87662B6A1
:104BE0003000C0B270BDDFF898018079002801D193
:104BF00000BFF8E77047000090B7000870B80008E1
:104C000074B6000884B600089CB7000870B50400AC
:104C10000D000026002C04D02000FEF76BF90600E2
:104C200005E0DFF864018068FEF764F90600F6B27B
:104C3000002E01D008202CE00021DFF85001FEF703
:104C40003DF90600F6B2002E01D00A2021E0032132
:104C5000DFF83C01FEF732F90600F6B2002E01D073
:104C60000A2016E0EDB22900DFF82801FEF726F948
:104C70000600F6B2002E01D00A200AE0FEF758F92D
:104C80000120DFF8EC10C8700120FEF7C5F83000F5
:104C9000C0B270BD94B60008A8B700080CB50008F3
:104CA000B4B70008A4B60008B4B60008C02B0020B2
:104CB000E8B3000820B5000800B40008C4B6000836
:104CC000C0B70008CCB70008D8B7000878B800080B
:104CD00080B80008E4B7000838B5040000250020BB
:104CE0000090DFF8B400006850F004002A49086022
:104CF0002948006810F00400009000984FF480707C
:104D00002649086001202549486000202349886021
:104D100003202249C86021492148FEF7EFFDE4B293
:104D2000002C06D001224FF480711D48FEF777FF5A
:104D300005E000224FF480711948FEF770FF28004B
:104D4000C0B232BDD4B60008E4B60008F8B200081C
:104D5000F4B6000834B5000814B3000888B8000899
:104D6000785B0020C02B00204863002048B5000875
:104D7000C862002004B7000818B40008B26300201D
:104D8000946200207C5F00206062002014B700085D
:104D90009CB7000824B70008303802401C6300208C
:104DA000000802402DE9F843002477A54FF4FA46A5
:104DB0000020DFF8B412087001F012FA00F08EF84B
:104DC00001F02EF95FF4E13001F04CF901F098F9AF
:104DD0005FF4E13001F06FF901F0C4FA0020DFF870
:104DE0008C1248700220DFF8841288700120DFF8EE
:104DF0007C12C8700220DFF878120870DFF87402A5
:104E00000068FFF76BFB0700DFF86802D0F800804E
:104E1000DFF864923A0041464846FFF77BFBDFF833
:104E20004C02FFF7C5FB0400E4B2002C04D0934809
:104E3000FFF7ACFB00204FE001F052FA01F036FB27
:104E40008B48007800280CD001280BD002283BD0DA
:104E500003281BD005281DD006281FD0072826D0E0
:104E600037E036E086480078002805D0854801788C
:104E70008148FFF7CBFE05E0824801787D48006855
:104E8000FFF7C4FE02207A49087022E00620784924
:104E900008701EE00020764908701AE029003000F2
:104EA000FFF71FFE040002207149087011E07648E8
:104EB000FFF714FB754908807548006801F038FA5F
:104EC00002206B49087004E04FF4FA70FEF7C8FE48
:104ED000FFE701F0A7F9B1E7BDE8F28300B593B0B1
:104EE000002000906B48006850F0805069490860CD
:104EF0006848006810F080500090009800200090F2
:104F00006548006830F4404050F400406249086051
:104F10006148006810F4404000900098012006901D
:104F20005FF4A020079002200C905FF480000D90A9
:104F300008200E904FF480700F90042010900420F1
:104F4000119006A801F0E2FA002801D0FDF7DEFE7C
:104F50000F20019002200290002003904FF4805017
:104F6000049000200590022101A800F023FB00F02E
:104F7000E9FB4FF47A71B0FBF1F001F03AFD042047
:104F800001F03DFD13B000BD740000002DE9F84FA5
:104F900004000D0016001F002800FFF79FFA80464E
:104FA00000203F4908801FFA88F8B8F5007F06DD29
:104FB0003C483749086007202D4908702AE03A48E4
:104FC0000078012820D04FF400795FF0000ADFF864
:104FD000DCB0524649465846FEF708FA002080B237
:104FE000B0F5007F0CDA0100424689B292B29142DC
:104FF00006D280B2295C2D4A80B21154401CEEE7E3
:1050000001202B49087005E02A4821490860072043
:1050100017490870BDE8F18F0120154908707047E5
:105020000320134908707047012023490870234862
:105030001749086007200E490870704780B520485E
:10504000FFF7A4FA154801F038FD01BD704710B50F
:1050500004001C48FFF79AFA2000FFF797FA0F4860
:1050600001F02BFD10BD0000AD6300202C6200207C
:10507000AF63002024000020F462002024B6000862
:10508000B0630020B8010020585000208663002043
:105090006063002040380240007000409C00002007
:1050A0008863002084B70008AE630020584E0020BB
:1050B000AB63002050B80008AC63002058B800086B
:1050C0000CB2000898B200087047704770477047EC
:1050D0007047704770477047704738B504000D003F
:1050E0002900200001F006FD32BD000010B50400CB
:1050F0000122DFF81800E4B230F81410DFF81000D5
:10510000E4B250F82400FEF78AFD10BDEA3300082F
:105110002800002010B586B004008B48844262D17C
:10512000002000908948006850F00100874908601D
:105130008648006810F00100009000980020009060
:105140008248006850F00100804908607F4800688C
:1051500010F0010000900098002000907C4800684A
:1051600050F010007A4908607948006810F010008B
:1051700000900098002000907548006850F480402E
:10518000734908607248006810F4804000900098ED
:105190004FF400700190022002900020039007203D
:1051A00005900320049001A96A48FEF7A7FB4FF47D
:1051B000806001900720059001A96648FEF79EFBDC
:1051C0004FF480500190012003900720059001A921
:1051D0006048FEF793FB00220321252001F0E8FB45
:1051E000252001F0F8FB06B010BD10B504005648AC
:1051F000844218D15848006850F0100056490860A1
:105200005548006830F01000534908604FF40071B1
:105210005048FEF756FC4FF480614E48FEF751FCB3
:10522000252001F0DFFB10BD10B582B004004B4813
:10523000844216D1002000904948006850F00100D7
:10524000474908604648006810F001000090009847
:10525000002203211C2001F0ABFB1C2001F0BBFB52
:105260004BE020683F49884216D100200090384822
:10527000006850F00100364908603548006810F0B9
:1052800001000090009800220121192001F090FBFC
:10529000192001F0A0FB30E020683349884216D184
:1052A000002000902E48006850F004002C4908604F
:1052B0002B48006810F004000090009801220121A2
:1052C0001E2001F075FB1E2001F085FB15E000207B
:1052D00000902348006850F00200214908602048EF
:1052E000006810F0020000900098002202211D20AA
:1052F00001F05EFB1D2001F06EFB13BD10B586B002
:1053000004002068194988421BD1002000901048F1
:10531000006850F480500E4908600D48006810F491
:10532000805000900098E020019002200290002020
:105330000390032004900520059001A90548FEF77D
:10534000DDFA06B010BD00007C5F0020303802405E
:10535000443802400000024024380240B06000207F
:105360004038024000000140000800400030014089
:105370007047704770477047704780B50020FFF74F
:10538000B5FEFBE780B50020FFF7B0FEFBE780B578
:105390000020FFF7ABFEFBE780B50020FFF7A6FE7D
:1053A000FBE780B50020FFF7A1FE01BD80B500201E
:1053B000FFF79CFE01BD704780B55C48FEF7B2F870
:1053C00001BD80B55A48FEF7ADF801BD80B559481A
:1053D0005949097800EBC1008088002810D057484F
:1053E00055490978405C01280AD155485249097845
:1053F00030F81100401C52494F4A127821F812002F
:105400004D480078401C4C4908704B4800783228C1
:10541000DDDB0020484908704A4890F90000012867
:1054200018D049480078012806D100F069FF5FF0E4
:10543000FF30444908700DE043480078022803D04B
:1054400002F048FE012805D100F05AFF5FF0FF305E
:105450003C49087002F074FEFBF740FC01BD80B5CA
:105460003A48FEF75FF801BD80B53948FEF75AF8B3
:1054700001BD10B504003548844219D1354836497C
:10548000097830F811003549097889B2884203D388
:105490000120334908702BE02E482F49097830F855
:1054A0001100401C2B492C4A127821F812001FE0F1
:1054B0002748844219D127482A49097830F8110031
:1054C0002949097889B2884203D301202749087005
:1054D0000EE020482349097830F81100401C1D498E
:1054E000204A127821F8120002E02000FAF777FF34
:1054F00010BD10B504002000FBF76AFC10BD10B50C
:1055000004002000FBF760FC10BD10B50400200073
:10551000FBF7A4FC10BD80B51548FEF7A6FC01BD45
:1055200080B51448FEF7A1FC01BD000074600020A6
:10553000B0600020E8590020A76300202861002007
:105540008C5D0020B7010020AD630020FC5F0020CF
:1055500038600020C45C0020A5630020B501002055
:10556000A8630020A4630020B6010020A9630020E6
:105570007C5F0020BC5F00207047704770470000D0
:1055800001480068704700BF68630020010091F87F
:105590003500022803D080204865012009E005205D
:1055A00081F8350008680068400840000A6810600B
:1055B0000020704770B504000D0000267348006895
:1055C00010F00F00A84209D2704805706F480068BB
:1055D00010F00F00A84201D00120B2E0207880072F
:1055E00007D56B48006830F0F000A16808436849AF
:1055F00008602078C00769D56068012805D1654832
:105600000068800313D401209BE06068022802D068
:105610006068032805D15F480068800107D4012035
:105620008FE05C480068800701D4012089E0584879
:105630000068800880006168084355490860FFF7EA
:105640009FFF0600606801280ED15148006810F0E5
:105650000C0004283AD0FFF793FF801B41F28931F8
:105660008842F2D303206CE0606802280ED14848DB
:10567000006810F00C00082828D0FFF781FF801B7D
:1056800041F289318842F2D303205AE0606803284E
:105690000ED13F48006810F00C000C2816D0FFF720
:1056A0006FFF801B41F289318842F2D3032048E02A
:1056B0003748006810F00C0F08D0FFF761FF801B1F
:1056C00041F289318842F3D303203AE02F48006841
:1056D00010F00F00854209D22C4805702B48006855
:1056E00010F00F00A84201D001202AE020784007E6
:1056F00007D52748006830F4E050E16808432449A2
:1057000008602078000708D52148006830F4604020
:10571000216950EAC1001E49086000F043F81C49A5
:1057200009681D4A11F0F0015FF07063B3FA83F36A
:10573000D940515CC840194908600F2002F008FDAB
:10574000002070BD15480068704780B5FFF7FAFF6C
:105750000F490968124A11F4E0515FF46013B3FA7B
:1057600083F3D940515CC84002BD80B5FFF7EAFF22
:10577000074909680A4A11F460415FF4E023B3FA6B
:1057800083F3D940515CC84002BD0000003C024098
:10579000083802400038024064B600082C0000209F
:1057A00068B8000870B40021002200230020264CB5
:1057B000246814F00C04002C04D0042C05D0082C10
:1057C00006D03DE0214C20003CE0214C200039E097
:1057D000204C246814F03F0421001E4C246864020D
:1057E0000FD51C4C24681A4DB5FBF1F547F6C07671
:1057F0003440194EB6FA86F6F44004FB05F4220054
:105800000EE0144C2468114DB5FBF1F547F6C07657
:105810003440114EB6FA86F6F44004FB05F422003B
:105820000C4C246814F440344FF44045B5FA85F527
:10583000EC40641C64002300B2FBF3F4200001E0A0
:10584000024C200070BC7047083802400024F4006D
:1058500000127A00043802400000FE032DE9F04FE8
:1058600080460FF2A47095B015461E46D0E900237D
:10587000CDE9132303AF00200391B8610DF1340982
:1058800000E02D190020ADF8020013AB4FF0FF32FD
:1058900029460DF1020002F06FFC0446012C04DAE7
:1058A0002878441EA441E443E40FBDF802002528F3
:1058B0000CBFA4F1010BA346BBF1010F0EDBAA46FE
:1058C0001AF8011B0398C0470028039000F0DA8003
:1058D000B869401CBBF1010BB861F1D1BDF8020001
:1058E000252804D10020F8603861786105E000289F
:1058F000C7D1B86906E340F0010015F8011F20295F
:10590000F9D023290DD02B2904D02D2906D03029F8
:105910000AD00CE040F0020080B2EEE740F0040054
:10592000FAE740F00800F7E740F01000F4E72A2912
:105930000ED13168316051F8042B3160002A3A628F
:1059400004D5514240F00400396280B26D1C13E06E
:10595000002139620BE0396A6FF00043994205D0AB
:1059600001EB810302EB4301303939626D1C2A7867
:10597000A2F130010A29EED329782E2903D04FF065
:10598000FF31F9611FE015F8011F2A2907D131689D
:1059900031606D1C51F8042B3160FA6113E0002175
:1059A000F9610BE0F9696FF00043994205D001EB12
:1059B000810302EB43013039F9616D1C2A78A2F1B1
:1059C00030010A29EED3B8840FF24460297802F03E
:1059D000E3FB08B115F8010B8DF832009DF8320099
:1059E000682804BF2878682803D162208DF8320027
:1059F0006D1C0DA8B86015F8014B252C13D0582C40
:105A00004BD0632C00F0A380642C18BF692C7CD091
:105A10006F2C42D0702C36D0732C0AD0752C18BF46
:105A2000782C3AD0B6E00120F86025208DF83400BB
:105A3000BAE09DF832006C283068306018D050F819
:105A4000044B30607C60D7F81CA0BAF1000F04D57D
:105A50002046FEF743FD824607E0524600212046DD
:105A600002F0A6FB08B1A0EB040AC7F810A09BE067
:105A700050F8042B306002A9404600F02DF90028B0
:105A800040F192803CE23068306050F8041B306096
:105A900002910DA87860782155E09DF832006C28BD
:105AA0000DD0712818BF6A2809D13068C01D20F0B8
:105AB00007023260D2E900010832326004E0316846
:105AC000316051F8040B316002909DF83200682873
:105AD00002D102A8008803E0622802D102A800785F
